{
  "_format": "hh-sol-artifact-1",
  "contractName": "LazyNFT",
  "sourceName": "contracts/LazyNFT.sol",
  "abi": [
    {
      "inputs": [],
      "stateMutability": "nonpayable",
      "type": "constructor"
    },
    {
      "anonymous": false,
      "inputs": [
        {
          "indexed": true,
          "internalType": "address",
          "name": "owner",
          "type": "address"
        },
        {
          "indexed": true,
          "internalType": "address",
          "name": "approved",
          "type": "address"
        },
        {
          "indexed": true,
          "internalType": "uint256",
          "name": "tokenId",
          "type": "uint256"
        }
      ],
      "name": "Approval",
      "type": "event"
    },
    {
      "anonymous": false,
      "inputs": [
        {
          "indexed": true,
          "internalType": "address",
          "name": "owner",
          "type": "address"
        },
        {
          "indexed": true,
          "internalType": "address",
          "name": "operator",
          "type": "address"
        },
        {
          "indexed": false,
          "internalType": "bool",
          "name": "approved",
          "type": "bool"
        }
      ],
      "name": "ApprovalForAll",
      "type": "event"
    },
    {
      "anonymous": false,
      "inputs": [
        {
          "indexed": true,
          "internalType": "address",
          "name": "owner",
          "type": "address"
        },
        {
          "indexed": false,
          "internalType": "uint256",
          "name": "tokenId",
          "type": "uint256"
        }
      ],
      "name": "Burned",
      "type": "event"
    },
    {
      "anonymous": false,
      "inputs": [
        {
          "indexed": true,
          "internalType": "address",
          "name": "creator",
          "type": "address"
        },
        {
          "indexed": true,
          "internalType": "address",
          "name": "owner",
          "type": "address"
        },
        {
          "indexed": false,
          "internalType": "uint256",
          "name": "tokenId",
          "type": "uint256"
        },
        {
          "indexed": false,
          "internalType": "string",
          "name": "tokenURI",
          "type": "string"
        }
      ],
      "name": "Minted",
      "type": "event"
    },
    {
      "anonymous": false,
      "inputs": [
        {
          "indexed": true,
          "internalType": "address",
          "name": "previousOwner",
          "type": "address"
        },
        {
          "indexed": true,
          "internalType": "address",
          "name": "newOwner",
          "type": "address"
        }
      ],
      "name": "OwnershipTransferred",
      "type": "event"
    },
    {
      "anonymous": false,
      "inputs": [
        {
          "indexed": true,
          "internalType": "address",
          "name": "creator",
          "type": "address"
        },
        {
          "indexed": false,
          "internalType": "uint256",
          "name": "tokenId",
          "type": "uint256"
        },
        {
          "indexed": false,
          "internalType": "uint256",
          "name": "amount",
          "type": "uint256"
        }
      ],
      "name": "RoyaltyPaid",
      "type": "event"
    },
    {
      "anonymous": false,
      "inputs": [
        {
          "indexed": true,
          "internalType": "address",
          "name": "creator",
          "type": "address"
        },
        {
          "indexed": false,
          "internalType": "uint256",
          "name": "tokenId",
          "type": "uint256"
        },
        {
          "indexed": false,
          "internalType": "uint96",
          "name": "feeNumerator",
          "type": "uint96"
        }
      ],
      "name": "RoyaltySet",
      "type": "event"
    },
    {
      "anonymous": false,
      "inputs": [
        {
          "indexed": true,
          "internalType": "address",
          "name": "from",
          "type": "address"
        },
        {
          "indexed": true,
          "internalType": "address",
          "name": "to",
          "type": "address"
        },
        {
          "indexed": true,
          "internalType": "uint256",
          "name": "tokenId",
          "type": "uint256"
        }
      ],
      "name": "Transfer",
      "type": "event"
    },
    {
      "anonymous": false,
      "inputs": [
        {
          "indexed": true,
          "internalType": "address",
          "name": "from",
          "type": "address"
        },
        {
          "indexed": true,
          "internalType": "address",
          "name": "to",
          "type": "address"
        },
        {
          "indexed": false,
          "internalType": "uint256",
          "name": "tokenId",
          "type": "uint256"
        }
      ],
      "name": "Transferred",
      "type": "event"
    },
    {
      "inputs": [
        {
          "components": [
            {
              "internalType": "string",
              "name": "tokenURI",
              "type": "string"
            },
            {
              "internalType": "uint256",
              "name": "minPrice",
              "type": "uint256"
            },
            {
              "internalType": "address",
              "name": "creator",
              "type": "address"
            },
            {
              "internalType": "uint96",
              "name": "feeNumerator",
              "type": "uint96"
            },
            {
              "internalType": "uint256",
              "name": "nonce",
              "type": "uint256"
            }
          ],
          "internalType": "struct LazyNFT.NFTVoucher",
          "name": "voucher",
          "type": "tuple"
        },
        {
          "internalType": "bytes",
          "name": "signature",
          "type": "bytes"
        }
      ],
      "name": "_verify",
      "outputs": [
        {
          "internalType": "address",
          "name": "",
          "type": "address"
        }
      ],
      "stateMutability": "view",
      "type": "function"
    },
    {
      "inputs": [
        {
          "internalType": "address",
          "name": "to",
          "type": "address"
        },
        {
          "internalType": "uint256",
          "name": "tokenId",
          "type": "uint256"
        }
      ],
      "name": "approve",
      "outputs": [],
      "stateMutability": "nonpayable",
      "type": "function"
    },
    {
      "inputs": [
        {
          "internalType": "address",
          "name": "owner",
          "type": "address"
        }
      ],
      "name": "balanceOf",
      "outputs": [
        {
          "internalType": "uint256",
          "name": "",
          "type": "uint256"
        }
      ],
      "stateMutability": "view",
      "type": "function"
    },
    {
      "inputs": [
        {
          "internalType": "uint256",
          "name": "tokenId",
          "type": "uint256"
        }
      ],
      "name": "burn",
      "outputs": [],
      "stateMutability": "nonpayable",
      "type": "function"
    },
    {
      "inputs": [
        {
          "internalType": "uint256",
          "name": "tokenId",
          "type": "uint256"
        }
      ],
      "name": "getApproved",
      "outputs": [
        {
          "internalType": "address",
          "name": "",
          "type": "address"
        }
      ],
      "stateMutability": "view",
      "type": "function"
    },
    {
      "inputs": [],
      "name": "getCurrentTokenId",
      "outputs": [
        {
          "internalType": "uint256",
          "name": "",
          "type": "uint256"
        }
      ],
      "stateMutability": "view",
      "type": "function"
    },
    {
      "inputs": [
        {
          "internalType": "address",
          "name": "owner",
          "type": "address"
        },
        {
          "internalType": "address",
          "name": "operator",
          "type": "address"
        }
      ],
      "name": "isApprovedForAll",
      "outputs": [
        {
          "internalType": "bool",
          "name": "",
          "type": "bool"
        }
      ],
      "stateMutability": "view",
      "type": "function"
    },
    {
      "inputs": [],
      "name": "name",
      "outputs": [
        {
          "internalType": "string",
          "name": "",
          "type": "string"
        }
      ],
      "stateMutability": "view",
      "type": "function"
    },
    {
      "inputs": [],
      "name": "owner",
      "outputs": [
        {
          "internalType": "address",
          "name": "",
          "type": "address"
        }
      ],
      "stateMutability": "view",
      "type": "function"
    },
    {
      "inputs": [
        {
          "internalType": "uint256",
          "name": "tokenId",
          "type": "uint256"
        }
      ],
      "name": "ownerOf",
      "outputs": [
        {
          "internalType": "address",
          "name": "",
          "type": "address"
        }
      ],
      "stateMutability": "view",
      "type": "function"
    },
    {
      "inputs": [
        {
          "components": [
            {
              "internalType": "string",
              "name": "tokenURI",
              "type": "string"
            },
            {
              "internalType": "uint256",
              "name": "minPrice",
              "type": "uint256"
            },
            {
              "internalType": "address",
              "name": "creator",
              "type": "address"
            },
            {
              "internalType": "uint96",
              "name": "feeNumerator",
              "type": "uint96"
            },
            {
              "internalType": "uint256",
              "name": "nonce",
              "type": "uint256"
            }
          ],
          "internalType": "struct LazyNFT.NFTVoucher",
          "name": "voucher",
          "type": "tuple"
        },
        {
          "internalType": "bytes",
          "name": "signature",
          "type": "bytes"
        }
      ],
      "name": "redeem",
      "outputs": [
        {
          "internalType": "uint256",
          "name": "",
          "type": "uint256"
        }
      ],
      "stateMutability": "payable",
      "type": "function"
    },
    {
      "inputs": [],
      "name": "renounceOwnership",
      "outputs": [],
      "stateMutability": "nonpayable",
      "type": "function"
    },
    {
      "inputs": [
        {
          "internalType": "uint256",
          "name": "_tokenId",
          "type": "uint256"
        },
        {
          "internalType": "uint256",
          "name": "_salePrice",
          "type": "uint256"
        }
      ],
      "name": "royaltyInfo",
      "outputs": [
        {
          "internalType": "address",
          "name": "",
          "type": "address"
        },
        {
          "internalType": "uint256",
          "name": "",
          "type": "uint256"
        }
      ],
      "stateMutability": "view",
      "type": "function"
    },
    {
      "inputs": [
        {
          "internalType": "address",
          "name": "from",
          "type": "address"
        },
        {
          "internalType": "address",
          "name": "to",
          "type": "address"
        },
        {
          "internalType": "uint256",
          "name": "tokenId",
          "type": "uint256"
        }
      ],
      "name": "safeTransferFrom",
      "outputs": [],
      "stateMutability": "nonpayable",
      "type": "function"
    },
    {
      "inputs": [
        {
          "internalType": "address",
          "name": "from",
          "type": "address"
        },
        {
          "internalType": "address",
          "name": "to",
          "type": "address"
        },
        {
          "internalType": "uint256",
          "name": "tokenId",
          "type": "uint256"
        },
        {
          "internalType": "bytes",
          "name": "data",
          "type": "bytes"
        }
      ],
      "name": "safeTransferFrom",
      "outputs": [],
      "stateMutability": "nonpayable",
      "type": "function"
    },
    {
      "inputs": [
        {
          "internalType": "address",
          "name": "operator",
          "type": "address"
        },
        {
          "internalType": "bool",
          "name": "approved",
          "type": "bool"
        }
      ],
      "name": "setApprovalForAll",
      "outputs": [],
      "stateMutability": "nonpayable",
      "type": "function"
    },
    {
      "inputs": [
        {
          "internalType": "uint256",
          "name": "tokenId",
          "type": "uint256"
        },
        {
          "internalType": "address",
          "name": "receiver",
          "type": "address"
        },
        {
          "internalType": "uint96",
          "name": "feeNumerator",
          "type": "uint96"
        }
      ],
      "name": "setTokenRoyaltyPublic",
      "outputs": [],
      "stateMutability": "nonpayable",
      "type": "function"
    },
    {
      "inputs": [
        {
          "internalType": "bytes4",
          "name": "interfaceId",
          "type": "bytes4"
        }
      ],
      "name": "supportsInterface",
      "outputs": [
        {
          "internalType": "bool",
          "name": "",
          "type": "bool"
        }
      ],
      "stateMutability": "view",
      "type": "function"
    },
    {
      "inputs": [],
      "name": "symbol",
      "outputs": [
        {
          "internalType": "string",
          "name": "",
          "type": "string"
        }
      ],
      "stateMutability": "view",
      "type": "function"
    },
    {
      "inputs": [
        {
          "internalType": "uint256",
          "name": "tokenId",
          "type": "uint256"
        }
      ],
      "name": "tokenURI",
      "outputs": [
        {
          "internalType": "string",
          "name": "",
          "type": "string"
        }
      ],
      "stateMutability": "view",
      "type": "function"
    },
    {
      "inputs": [
        {
          "internalType": "address",
          "name": "from",
          "type": "address"
        },
        {
          "internalType": "address",
          "name": "to",
          "type": "address"
        },
        {
          "internalType": "uint256",
          "name": "tokenId",
          "type": "uint256"
        }
      ],
      "name": "transferFrom",
      "outputs": [],
      "stateMutability": "nonpayable",
      "type": "function"
    },
    {
      "inputs": [
        {
          "internalType": "address",
          "name": "newOwner",
          "type": "address"
        }
      ],
      "name": "transferOwnership",
      "outputs": [],
      "stateMutability": "nonpayable",
      "type": "function"
    },
    {
      "inputs": [
        {
          "internalType": "address",
          "name": "",
          "type": "address"
        },
        {
          "internalType": "uint256",
          "name": "",
          "type": "uint256"
        }
      ],
      "name": "usedNonces",
      "outputs": [
        {
          "internalType": "bool",
          "name": "",
          "type": "bool"
        }
      ],
      "stateMutability": "view",
      "type": "function"
    }
  ],
  "bytecode": "0x6101406040523480156200001257600080fd5b506040518060400160405280600781526020017f4c617a794e4654000000000000000000000000000000000000000000000000008152506040518060400160405280600181526020017f31000000000000000000000000000000000000000000000000000000000000008152506040518060400160405280600781526020017f4c617a794e4654000000000000000000000000000000000000000000000000008152506040518060400160405280600481526020017f4c4e4654000000000000000000000000000000000000000000000000000000008152508160009081620000fc919062000575565b5080600190816200010e919062000575565b50505060008280519060200120905060008280519060200120905060007f8b73c3c69bb8fe3d512ecc4cf759cc79239f7b179b0ffacaa9a75d522b39400f90508260e081815250508161010081815250504660a081815250506200017a818484620001f160201b60201c565b608081815250503073ffffffffffffffffffffffffffffffffffffffff1660c08173ffffffffffffffffffffffffffffffffffffffff16815250508061012081815250505050505050620001e3620001d76200022d60201b60201c565b6200023560201b60201c565b6001600a819055506200072a565b600083838346306040516020016200020e959493929190620006cd565b6040516020818303038152906040528051906020012090509392505050565b600033905090565b6000600960009054906101000a900473ffffffffffffffffffffffffffffffffffffffff16905081600960006101000a81548173ffffffffffffffffffffffffffffffffffffffff021916908373ffffffffffffffffffffffffffffffffffffffff1602179055508173ffffffffffffffffffffffffffffffffffffffff168173ffffffffffffffffffffffffffffffffffffffff167f8be0079c531659141344cd1fd0a4f28419497f9722a3daafe3b4186f6b6457e060405160405180910390a35050565b600081519050919050565b7f4e487b7100000000000000000000000000000000000000000000000000000000600052604160045260246000fd5b7f4e487b7100000000000000000000000000000000000000000000000000000000600052602260045260246000fd5b600060028204905060018216806200037d57607f821691505b60208210810362000393576200039262000335565b5b50919050565b60008190508160005260206000209050919050565b60006020601f8301049050919050565b600082821b905092915050565b600060088302620003fd7fffffffffffffffffffffffffffffffffffffffffffffffffffffffffffffffff82620003be565b620004098683620003be565b95508019841693508086168417925050509392505050565b6000819050919050565b6000819050919050565b600062000456620004506200044a8462000421565b6200042b565b62000421565b9050919050565b6000819050919050565b620004728362000435565b6200048a62000481826200045d565b848454620003cb565b825550505050565b600090565b620004a162000492565b620004ae81848462000467565b505050565b5b81811015620004d657620004ca60008262000497565b600181019050620004b4565b5050565b601f8211156200052557620004ef8162000399565b620004fa84620003ae565b810160208510156200050a578190505b620005226200051985620003ae565b830182620004b3565b50505b505050565b600082821c905092915050565b60006200054a600019846008026200052a565b1980831691505092915050565b600062000565838362000537565b9150826002028217905092915050565b6200058082620002fb565b67ffffffffffffffff8111156200059c576200059b62000306565b5b620005a8825462000364565b620005b5828285620004da565b600060209050601f831160018114620005ed5760008415620005d8578287015190505b620005e4858262000557565b86555062000654565b601f198416620005fd8662000399565b60005b82811015620006275784890151825560018201915060208501945060208101905062000600565b8683101562000647578489015162000643601f89168262000537565b8355505b6001600288020188555050505b505050505050565b6000819050919050565b62000671816200065c565b82525050565b620006828162000421565b82525050565b600073ffffffffffffffffffffffffffffffffffffffff82169050919050565b6000620006b58262000688565b9050919050565b620006c781620006a8565b82525050565b600060a082019050620006e4600083018862000666565b620006f3602083018762000666565b62000702604083018662000666565b62000711606083018562000677565b620007206080830184620006bc565b9695505050505050565b60805160a05160c05160e0516101005161012051614eb56200077a6000396000612b3701526000612b7901526000612b5801526000612a8d01526000612ae301526000612b0c0152614eb56000f3fe6080604052600436106101405760003560e01c80636a8a6894116100b6578063b88d4fde1161006f578063b88d4fde14610474578063c87b56dd1461049d578063d4e7ca8d146104da578063e9230c4714610503578063e985e9c514610540578063f2fde38b1461057d57610140565b80636a8a68941461036457806370a08231146103a1578063715018a6146103de5780638da5cb5b146103f557806395d89b4114610420578063a22cb4651461044b57610140565b80632a55205a116101085780632a55205a1461023c578063373997831461027a57806342842e0e146102aa57806342966c68146102d357806356189236146102fc5780636352211e1461032757610140565b806301ffc9a71461014557806306fdde0314610182578063081812fc146101ad578063095ea7b3146101ea57806323b872dd14610213575b600080fd5b34801561015157600080fd5b5061016c60048036038101906101679190613158565b6105a6565b60405161017991906131a0565b60405180910390f35b34801561018e57600080fd5b506101976105b8565b6040516101a4919061324b565b60405180910390f35b3480156101b957600080fd5b506101d460048036038101906101cf91906132a3565b61064a565b6040516101e19190613311565b60405180910390f35b3480156101f657600080fd5b50610211600480360381019061020c9190613358565b610690565b005b34801561021f57600080fd5b5061023a60048036038101906102359190613398565b6107a7565b005b34801561024857600080fd5b50610263600480360381019061025e91906133eb565b610807565b60405161027192919061343a565b60405180910390f35b610294600480360381019061028f91906134ec565b6109f1565b6040516102a19190613568565b60405180910390f35b3480156102b657600080fd5b506102d160048036038101906102cc9190613398565b610e51565b005b3480156102df57600080fd5b506102fa60048036038101906102f591906132a3565b610e71565b005b34801561030857600080fd5b50610311610f41565b60405161031e9190613568565b60405180910390f35b34801561033357600080fd5b5061034e600480360381019061034991906132a3565b610f52565b60405161035b9190613311565b60405180910390f35b34801561037057600080fd5b5061038b60048036038101906103869190613358565b610fd8565b60405161039891906131a0565b60405180910390f35b3480156103ad57600080fd5b506103c860048036038101906103c39190613583565b611007565b6040516103d59190613568565b60405180910390f35b3480156103ea57600080fd5b506103f36110be565b005b34801561040157600080fd5b5061040a6110d2565b6040516104179190613311565b60405180910390f35b34801561042c57600080fd5b506104356110fc565b604051610442919061324b565b60405180910390f35b34801561045757600080fd5b50610472600480360381019061046d91906135dc565b61118e565b005b34801561048057600080fd5b5061049b6004803603810190610496919061374c565b6111a4565b005b3480156104a957600080fd5b506104c460048036038101906104bf91906132a3565b611206565b6040516104d1919061324b565b60405180910390f35b3480156104e657600080fd5b5061050160048036038101906104fc9190613813565b611318565b005b34801561050f57600080fd5b5061052a600480360381019061052591906134ec565b611396565b6040516105379190613311565b60405180910390f35b34801561054c57600080fd5b5061056760048036038101906105629190613866565b6114a3565b60405161057491906131a0565b60405180910390f35b34801561058957600080fd5b506105a4600480360381019061059f9190613583565b611537565b005b60006105b1826115ba565b9050919050565b6060600080546105c7906138d5565b80601f01602080910402602001604051908101604052809291908181526020018280546105f3906138d5565b80156106405780601f1061061557610100808354040283529160200191610640565b820191906000526020600020905b81548152906001019060200180831161062357829003601f168201915b5050505050905090565b600061065582611634565b6004600083815260200190815260200160002060009054906101000a900473ffffffffffffffffffffffffffffffffffffffff169050919050565b600061069b82610f52565b90508073ffffffffffffffffffffffffffffffffffffffff168373ffffffffffffffffffffffffffffffffffffffff160361070b576040517f08c379a000000000000000000000000000000000000000000000000000000000815260040161070290613978565b60405180910390fd5b8073ffffffffffffffffffffffffffffffffffffffff1661072a61167f565b73ffffffffffffffffffffffffffffffffffffffff16148061075957506107588161075361167f565b6114a3565b5b610798576040517f08c379a000000000000000000000000000000000000000000000000000000000815260040161078f90613a0a565b60405180910390fd5b6107a28383611687565b505050565b6107b86107b261167f565b82611740565b6107f7576040517f08c379a00000000000000000000000000000000000000000000000000000000081526004016107ee90613a9c565b60405180910390fd5b6108028383836117d5565b505050565b6000806000600860008681526020019081526020016000206040518060400160405290816000820160009054906101000a900473ffffffffffffffffffffffffffffffffffffffff1673ffffffffffffffffffffffffffffffffffffffff1673ffffffffffffffffffffffffffffffffffffffff1681526020016000820160149054906101000a90046bffffffffffffffffffffffff166bffffffffffffffffffffffff166bffffffffffffffffffffffff16815250509050600073ffffffffffffffffffffffffffffffffffffffff16816000015173ffffffffffffffffffffffffffffffffffffffff160361099c5760076040518060400160405290816000820160009054906101000a900473ffffffffffffffffffffffffffffffffffffffff1673ffffffffffffffffffffffffffffffffffffffff1673ffffffffffffffffffffffffffffffffffffffff1681526020016000820160149054906101000a90046bffffffffffffffffffffffff166bffffffffffffffffffffffff166bffffffffffffffffffffffff168152505090505b60006109a6611ace565b6bffffffffffffffffffffffff1682602001516bffffffffffffffffffffffff16866109d29190613aeb565b6109dc9190613b5c565b90508160000151819350935050509250929050565b60006109fb611ad8565b6000610a08858585611396565b9050846040016020810190610a1d9190613583565b73ffffffffffffffffffffffffffffffffffffffff168173ffffffffffffffffffffffffffffffffffffffff1614610a8a576040517f08c379a0000000000000000000000000000000000000000000000000000000008152600401610a8190613bd9565b60405180910390fd5b8460200135341015610ad1576040517f08c379a0000000000000000000000000000000000000000000000000000000008152600401610ac890613c45565b60405180910390fd5b600c60008273ffffffffffffffffffffffffffffffffffffffff1673ffffffffffffffffffffffffffffffffffffffff16815260200190815260200160002060008660800135815260200190815260200160002060009054906101000a900460ff1615610b73576040517f08c379a0000000000000000000000000000000000000000000000000000000008152600401610b6a90613cb1565b60405180910390fd5b610b7b611ace565b6bffffffffffffffffffffffff16856060016020810190610b9c9190613cd1565b6bffffffffffffffffffffffff161115610beb576040517f08c379a0000000000000000000000000000000000000000000000000000000008152600401610be290613d4a565b60405180910390fd5b6001600c60008373ffffffffffffffffffffffffffffffffffffffff1673ffffffffffffffffffffffffffffffffffffffff16815260200190815260200160002060008760800135815260200190815260200160002060006101000a81548160ff021916908315150217905550610c62600b611b27565b6000610c6e600b611b3d565b9050610c7a3382611b4b565b610cd681878060000190610c8e9190613d79565b8080601f016020809104026020016040519081016040528093929190818152602001838380828437600081840152601f19601f82011690508083019250505050505050611d68565b610d0581876040016020810190610ced9190613583565b886060016020810190610d009190613cd1565b611dd5565b610d4034876040016020810190610d1c9190613583565b73ffffffffffffffffffffffffffffffffffffffff16611f7c90919063ffffffff16565b3373ffffffffffffffffffffffffffffffffffffffff16866040016020810190610d6a9190613583565b73ffffffffffffffffffffffffffffffffffffffff167fafe8c5a4c36942a61550534b714a0076ab46ef8ef23e361572aad8b7ca2ac27d83898060000190610db29190613d79565b604051610dc193929190613e09565b60405180910390a3856040016020810190610ddc9190613583565b73ffffffffffffffffffffffffffffffffffffffff167ff966ce97dd2f1d2e320f2a872d9547f6893777d3436879d005717910dfbbfcd282886060016020810190610e279190613cd1565b604051610e35929190613e4a565b60405180910390a28092505050610e4a612070565b9392505050565b610e6c838383604051806020016040528060008152506111a4565b505050565b3373ffffffffffffffffffffffffffffffffffffffff16610e9182610f52565b73ffffffffffffffffffffffffffffffffffffffff1614610ee7576040517f08c379a0000000000000000000000000000000000000000000000000000000008152600401610ede90613ebf565b60405180910390fd5b610ef08161207a565b3373ffffffffffffffffffffffffffffffffffffffff167f696de425f79f4a40bc6d2122ca50507f0efbeabbff86a84871b7196ab8ea8df782604051610f369190613568565b60405180910390a250565b6000610f4d600b611b3d565b905090565b600080610f5e836120cd565b9050600073ffffffffffffffffffffffffffffffffffffffff168173ffffffffffffffffffffffffffffffffffffffff1603610fcf576040517f08c379a0000000000000000000000000000000000000000000000000000000008152600401610fc690613f2b565b60405180910390fd5b80915050919050565b600c6020528160005260406000206020528060005260406000206000915091509054906101000a900460ff1681565b60008073ffffffffffffffffffffffffffffffffffffffff168273ffffffffffffffffffffffffffffffffffffffff1603611077576040517f08c379a000000000000000000000000000000000000000000000000000000000815260040161106e90613fbd565b60405180910390fd5b600360008373ffffffffffffffffffffffffffffffffffffffff1673ffffffffffffffffffffffffffffffffffffffff168152602001908152602001600020549050919050565b6110c661210a565b6110d06000612188565b565b6000600960009054906101000a900473ffffffffffffffffffffffffffffffffffffffff16905090565b60606001805461110b906138d5565b80601f0160208091040260200160405190810160405280929190818152602001828054611137906138d5565b80156111845780601f1061115957610100808354040283529160200191611184565b820191906000526020600020905b81548152906001019060200180831161116757829003601f168201915b5050505050905090565b6111a061119961167f565b838361224e565b5050565b6111b56111af61167f565b83611740565b6111f4576040517f08c379a00000000000000000000000000000000000000000000000000000000081526004016111eb90613a9c565b60405180910390fd5b611200848484846123ba565b50505050565b606061121182611634565b6000600660008481526020019081526020016000208054611231906138d5565b80601f016020809104026020016040519081016040528092919081815260200182805461125d906138d5565b80156112aa5780601f1061127f576101008083540402835291602001916112aa565b820191906000526020600020905b81548152906001019060200180831161128d57829003601f168201915b5050505050905060006112bb612416565b905060008151036112d0578192505050611313565b6000825111156113055780826040516020016112ed929190614019565b60405160208183030381529060405292505050611313565b61130e8461242d565b925050505b919050565b61132061210a565b611328611ace565b6bffffffffffffffffffffffff16816bffffffffffffffffffffffff161115611386576040517f08c379a000000000000000000000000000000000000000000000000000000000815260040161137d90613d4a565b60405180910390fd5b611391838383611dd5565b505050565b6000807fe12abb3ce43e9d90004dbf5c01d1545bb2f381c42625209992409ef02cb248c68580600001906113ca9190613d79565b6040516113d892919061406d565b604051809103902086602001358760400160208101906113f89190613583565b88606001602081019061140b9190613cd1565b89608001356040516020016114259695949392919061409f565b604051602081830303815290604052805190602001209050600061144882612495565b90506114988186868080601f016020809104026020016040519081016040528093929190818152602001838380828437600081840152601f19601f820116905080830192505050505050506124af565b925050509392505050565b6000600560008473ffffffffffffffffffffffffffffffffffffffff1673ffffffffffffffffffffffffffffffffffffffff16815260200190815260200160002060008373ffffffffffffffffffffffffffffffffffffffff1673ffffffffffffffffffffffffffffffffffffffff16815260200190815260200160002060009054906101000a900460ff16905092915050565b61153f61210a565b600073ffffffffffffffffffffffffffffffffffffffff168173ffffffffffffffffffffffffffffffffffffffff16036115ae576040517f08c379a00000000000000000000000000000000000000000000000000000000081526004016115a590614172565b60405180910390fd5b6115b781612188565b50565b60007f2a55205a000000000000000000000000000000000000000000000000000000007bffffffffffffffffffffffffffffffffffffffffffffffffffffffff1916827bffffffffffffffffffffffffffffffffffffffffffffffffffffffff1916148061162d575061162c826124d6565b5b9050919050565b61163d816125b8565b61167c576040517f08c379a000000000000000000000000000000000000000000000000000000000815260040161167390613f2b565b60405180910390fd5b50565b600033905090565b816004600083815260200190815260200160002060006101000a81548173ffffffffffffffffffffffffffffffffffffffff021916908373ffffffffffffffffffffffffffffffffffffffff160217905550808273ffffffffffffffffffffffffffffffffffffffff166116fa83610f52565b73ffffffffffffffffffffffffffffffffffffffff167f8c5be1e5ebec7d5bd14f71427d1e84f3dd0314c0f7b2291e5b200ac8c7c3b92560405160405180910390a45050565b60008061174c83610f52565b90508073ffffffffffffffffffffffffffffffffffffffff168473ffffffffffffffffffffffffffffffffffffffff16148061178e575061178d81856114a3565b5b806117cc57508373ffffffffffffffffffffffffffffffffffffffff166117b48461064a565b73ffffffffffffffffffffffffffffffffffffffff16145b91505092915050565b8273ffffffffffffffffffffffffffffffffffffffff166117f582610f52565b73ffffffffffffffffffffffffffffffffffffffff161461184b576040517f08c379a000000000000000000000000000000000000000000000000000000000815260040161184290614204565b60405180910390fd5b600073ffffffffffffffffffffffffffffffffffffffff168273ffffffffffffffffffffffffffffffffffffffff16036118ba576040517f08c379a00000000000000000000000000000000000000000000000000000000081526004016118b190614296565b60405180910390fd5b6118c783838360016125f9565b8273ffffffffffffffffffffffffffffffffffffffff166118e782610f52565b73ffffffffffffffffffffffffffffffffffffffff161461193d576040517f08c379a000000000000000000000000000000000000000000000000000000000815260040161193490614204565b60405180910390fd5b6004600082815260200190815260200160002060006101000a81549073ffffffffffffffffffffffffffffffffffffffff02191690556001600360008573ffffffffffffffffffffffffffffffffffffffff1673ffffffffffffffffffffffffffffffffffffffff168152602001908152602001600020600082825403925050819055506001600360008473ffffffffffffffffffffffffffffffffffffffff1673ffffffffffffffffffffffffffffffffffffffff16815260200190815260200160002060008282540192505081905550816002600083815260200190815260200160002060006101000a81548173ffffffffffffffffffffffffffffffffffffffff021916908373ffffffffffffffffffffffffffffffffffffffff160217905550808273ffffffffffffffffffffffffffffffffffffffff168473ffffffffffffffffffffffffffffffffffffffff167fddf252ad1be2c89b69c2b068fc378daa952ba7f163c4a11628f55a4df523b3ef60405160405180910390a4611ac983838360016126e0565b505050565b6000612710905090565b6002600a5403611b1d576040517f08c379a0000000000000000000000000000000000000000000000000000000008152600401611b1490614302565b60405180910390fd5b6002600a81905550565b6001816000016000828254019250508190555050565b600081600001549050919050565b600073ffffffffffffffffffffffffffffffffffffffff168273ffffffffffffffffffffffffffffffffffffffff1603611bba576040517f08c379a0000000000000000000000000000000000000000000000000000000008152600401611bb19061436e565b60405180910390fd5b611bc3816125b8565b15611c03576040517f08c379a0000000000000000000000000000000000000000000000000000000008152600401611bfa906143da565b60405180910390fd5b611c116000838360016125f9565b611c1a816125b8565b15611c5a576040517f08c379a0000000000000000000000000000000000000000000000000000000008152600401611c51906143da565b60405180910390fd5b6001600360008473ffffffffffffffffffffffffffffffffffffffff1673ffffffffffffffffffffffffffffffffffffffff16815260200190815260200160002060008282540192505081905550816002600083815260200190815260200160002060006101000a81548173ffffffffffffffffffffffffffffffffffffffff021916908373ffffffffffffffffffffffffffffffffffffffff160217905550808273ffffffffffffffffffffffffffffffffffffffff16600073ffffffffffffffffffffffffffffffffffffffff167fddf252ad1be2c89b69c2b068fc378daa952ba7f163c4a11628f55a4df523b3ef60405160405180910390a4611d646000838360016126e0565b5050565b611d71826125b8565b611db0576040517f08c379a0000000000000000000000000000000000000000000000000000000008152600401611da79061446c565b60405180910390fd5b80600660008481526020019081526020016000209081611dd09190614638565b505050565b611ddd611ace565b6bffffffffffffffffffffffff16816bffffffffffffffffffffffff161115611e3b576040517f08c379a0000000000000000000000000000000000000000000000000000000008152600401611e329061477c565b60405180910390fd5b600073ffffffffffffffffffffffffffffffffffffffff168273ffffffffffffffffffffffffffffffffffffffff1603611eaa576040517f08c379a0000000000000000000000000000000000000000000000000000000008152600401611ea1906147e8565b60405180910390fd5b60405180604001604052808373ffffffffffffffffffffffffffffffffffffffff168152602001826bffffffffffffffffffffffff168152506008600085815260200190815260200160002060008201518160000160006101000a81548173ffffffffffffffffffffffffffffffffffffffff021916908373ffffffffffffffffffffffffffffffffffffffff16021790555060208201518160000160146101000a8154816bffffffffffffffffffffffff02191690836bffffffffffffffffffffffff160217905550905050505050565b80471015611fbf576040517f08c379a0000000000000000000000000000000000000000000000000000000008152600401611fb690614854565b60405180910390fd5b60008273ffffffffffffffffffffffffffffffffffffffff1682604051611fe59061489a565b60006040518083038185875af1925050503d8060008114612022576040519150601f19603f3d011682016040523d82523d6000602084013e612027565b606091505b505090508061206b576040517f08c379a000000000000000000000000000000000000000000000000000000000815260040161206290614921565b60405180910390fd5b505050565b6001600a81905550565b612083816126e6565b60006006600083815260200190815260200160002080546120a3906138d5565b9050146120ca576006600082815260200190815260200160002060006120c9919061308f565b5b50565b60006002600083815260200190815260200160002060009054906101000a900473ffffffffffffffffffffffffffffffffffffffff169050919050565b61211261167f565b73ffffffffffffffffffffffffffffffffffffffff166121306110d2565b73ffffffffffffffffffffffffffffffffffffffff1614612186576040517f08c379a000000000000000000000000000000000000000000000000000000000815260040161217d9061498d565b60405180910390fd5b565b6000600960009054906101000a900473ffffffffffffffffffffffffffffffffffffffff16905081600960006101000a81548173ffffffffffffffffffffffffffffffffffffffff021916908373ffffffffffffffffffffffffffffffffffffffff1602179055508173ffffffffffffffffffffffffffffffffffffffff168173ffffffffffffffffffffffffffffffffffffffff167f8be0079c531659141344cd1fd0a4f28419497f9722a3daafe3b4186f6b6457e060405160405180910390a35050565b8173ffffffffffffffffffffffffffffffffffffffff168373ffffffffffffffffffffffffffffffffffffffff16036122bc576040517f08c379a00000000000000000000000000000000000000000000000000000000081526004016122b3906149f9565b60405180910390fd5b80600560008573ffffffffffffffffffffffffffffffffffffffff1673ffffffffffffffffffffffffffffffffffffffff16815260200190815260200160002060008473ffffffffffffffffffffffffffffffffffffffff1673ffffffffffffffffffffffffffffffffffffffff16815260200190815260200160002060006101000a81548160ff0219169083151502179055508173ffffffffffffffffffffffffffffffffffffffff168373ffffffffffffffffffffffffffffffffffffffff167f17307eab39ab6107e8899845ad3d59bd9653f200f220920489ca2b5937696c31836040516123ad91906131a0565b60405180910390a3505050565b6123c58484846117d5565b6123d184848484612834565b612410576040517f08c379a000000000000000000000000000000000000000000000000000000000815260040161240790614a8b565b60405180910390fd5b50505050565b606060405180602001604052806000815250905090565b606061243882611634565b6000612442612416565b90506000815111612462576040518060200160405280600081525061248d565b8061246c846129bb565b60405160200161247d929190614019565b6040516020818303038152906040525b915050919050565b60006124a86124a2612a89565b83612ba3565b9050919050565b60008060006124be8585612bd6565b915091506124cb81612c27565b819250505092915050565b60007f80ac58cd000000000000000000000000000000000000000000000000000000007bffffffffffffffffffffffffffffffffffffffffffffffffffffffff1916827bffffffffffffffffffffffffffffffffffffffffffffffffffffffff191614806125a157507f5b5e139f000000000000000000000000000000000000000000000000000000007bffffffffffffffffffffffffffffffffffffffffffffffffffffffff1916827bffffffffffffffffffffffffffffffffffffffffffffffffffffffff1916145b806125b157506125b082612d8d565b5b9050919050565b60008073ffffffffffffffffffffffffffffffffffffffff166125da836120cd565b73ffffffffffffffffffffffffffffffffffffffff1614159050919050565b600073ffffffffffffffffffffffffffffffffffffffff168473ffffffffffffffffffffffffffffffffffffffff16141580156126635750600073ffffffffffffffffffffffffffffffffffffffff168373ffffffffffffffffffffffffffffffffffffffff1614155b156126ce578273ffffffffffffffffffffffffffffffffffffffff168473ffffffffffffffffffffffffffffffffffffffff167fd1ba4ac2e2a11b5101f6cb4d978f514a155b421e8ec396d2d9abaf0bb02917ee846040516126c59190613568565b60405180910390a35b6126da84848484612df7565b50505050565b50505050565b60006126f182610f52565b90506127018160008460016125f9565b61270a82610f52565b90506004600083815260200190815260200160002060006101000a81549073ffffffffffffffffffffffffffffffffffffffff02191690556001600360008373ffffffffffffffffffffffffffffffffffffffff1673ffffffffffffffffffffffffffffffffffffffff168152602001908152602001600020600082825403925050819055506002600083815260200190815260200160002060006101000a81549073ffffffffffffffffffffffffffffffffffffffff021916905581600073ffffffffffffffffffffffffffffffffffffffff168273ffffffffffffffffffffffffffffffffffffffff167fddf252ad1be2c89b69c2b068fc378daa952ba7f163c4a11628f55a4df523b3ef60405160405180910390a46128308160008460016126e0565b5050565b60006128558473ffffffffffffffffffffffffffffffffffffffff16612dfd565b156129ae578373ffffffffffffffffffffffffffffffffffffffff1663150b7a0261287e61167f565b8786866040518563ffffffff1660e01b81526004016128a09493929190614b00565b6020604051808303816000875af19250505080156128dc57506040513d601f19601f820116820180604052508101906128d99190614b61565b60015b61295e573d806000811461290c576040519150601f19603f3d011682016040523d82523d6000602084013e612911565b606091505b506000815103612956576040517f08c379a000000000000000000000000000000000000000000000000000000000815260040161294d90614a8b565b60405180910390fd5b805181602001fd5b63150b7a0260e01b7bffffffffffffffffffffffffffffffffffffffffffffffffffffffff1916817bffffffffffffffffffffffffffffffffffffffffffffffffffffffff1916149150506129b3565b600190505b949350505050565b6060600060016129ca84612e20565b01905060008167ffffffffffffffff8111156129e9576129e8613621565b5b6040519080825280601f01601f191660200182016040528015612a1b5781602001600182028036833780820191505090505b509050600082602001820190505b600115612a7e578080600190039150507f3031323334353637383961626364656600000000000000000000000000000000600a86061a8153600a8581612a7257612a71613b2d565b5b04945060008503612a29575b819350505050919050565b60007f000000000000000000000000000000000000000000000000000000000000000073ffffffffffffffffffffffffffffffffffffffff163073ffffffffffffffffffffffffffffffffffffffff16148015612b0557507f000000000000000000000000000000000000000000000000000000000000000046145b15612b32577f00000000000000000000000000000000000000000000000000000000000000009050612ba0565b612b9d7f00000000000000000000000000000000000000000000000000000000000000007f00000000000000000000000000000000000000000000000000000000000000007f0000000000000000000000000000000000000000000000000000000000000000612f73565b90505b90565b60008282604051602001612bb8929190614bfb565b60405160208183030381529060405280519060200120905092915050565b6000806041835103612c175760008060006020860151925060408601519150606086015160001a9050612c0b87828585612fad565b94509450505050612c20565b60006002915091505b9250929050565b60006004811115612c3b57612c3a614c32565b5b816004811115612c4e57612c4d614c32565b5b0315612d8a5760016004811115612c6857612c67614c32565b5b816004811115612c7b57612c7a614c32565b5b03612cbb576040517f08c379a0000000000000000000000000000000000000000000000000000000008152600401612cb290614cad565b60405180910390fd5b60026004811115612ccf57612cce614c32565b5b816004811115612ce257612ce1614c32565b5b03612d22576040517f08c379a0000000000000000000000000000000000000000000000000000000008152600401612d1990614d19565b60405180910390fd5b60036004811115612d3657612d35614c32565b5b816004811115612d4957612d48614c32565b5b03612d89576040517f08c379a0000000000000000000000000000000000000000000000000000000008152600401612d8090614dab565b60405180910390fd5b5b50565b60007f01ffc9a7000000000000000000000000000000000000000000000000000000007bffffffffffffffffffffffffffffffffffffffffffffffffffffffff1916827bffffffffffffffffffffffffffffffffffffffffffffffffffffffff1916149050919050565b50505050565b6000808273ffffffffffffffffffffffffffffffffffffffff163b119050919050565b600080600090507a184f03e93ff9f4daa797ed6e38ed64bf6a1f0100000000000000008310612e7e577a184f03e93ff9f4daa797ed6e38ed64bf6a1f0100000000000000008381612e7457612e73613b2d565b5b0492506040810190505b6d04ee2d6d415b85acef81000000008310612ebb576d04ee2d6d415b85acef81000000008381612eb157612eb0613b2d565b5b0492506020810190505b662386f26fc100008310612eea57662386f26fc100008381612ee057612edf613b2d565b5b0492506010810190505b6305f5e1008310612f13576305f5e1008381612f0957612f08613b2d565b5b0492506008810190505b6127108310612f38576127108381612f2e57612f2d613b2d565b5b0492506004810190505b60648310612f5b5760648381612f5157612f50613b2d565b5b0492506002810190505b600a8310612f6a576001810190505b80915050919050565b60008383834630604051602001612f8e959493929190614dcb565b6040516020818303038152906040528051906020012090509392505050565b6000807f7fffffffffffffffffffffffffffffff5d576e7357a4501ddfe92f46681b20a08360001c1115612fe8576000600391509150613086565b60006001878787876040516000815260200160405260405161300d9493929190614e3a565b6020604051602081039080840390855afa15801561302f573d6000803e3d6000fd5b505050602060405103519050600073ffffffffffffffffffffffffffffffffffffffff168173ffffffffffffffffffffffffffffffffffffffff160361307d57600060019250925050613086565b80600092509250505b94509492505050565b50805461309b906138d5565b6000825580601f106130ad57506130cc565b601f0160209004906000526020600020908101906130cb91906130cf565b5b50565b5b808211156130e85760008160009055506001016130d0565b5090565b6000604051905090565b600080fd5b600080fd5b60007fffffffff0000000000000000000000000000000000000000000000000000000082169050919050565b61313581613100565b811461314057600080fd5b50565b6000813590506131528161312c565b92915050565b60006020828403121561316e5761316d6130f6565b5b600061317c84828501613143565b91505092915050565b60008115159050919050565b61319a81613185565b82525050565b60006020820190506131b56000830184613191565b92915050565b600081519050919050565b600082825260208201905092915050565b60005b838110156131f55780820151818401526020810190506131da565b60008484015250505050565b6000601f19601f8301169050919050565b600061321d826131bb565b61322781856131c6565b93506132378185602086016131d7565b61324081613201565b840191505092915050565b600060208201905081810360008301526132658184613212565b905092915050565b6000819050919050565b6132808161326d565b811461328b57600080fd5b50565b60008135905061329d81613277565b92915050565b6000602082840312156132b9576132b86130f6565b5b60006132c78482850161328e565b91505092915050565b600073ffffffffffffffffffffffffffffffffffffffff82169050919050565b60006132fb826132d0565b9050919050565b61330b816132f0565b82525050565b60006020820190506133266000830184613302565b92915050565b613335816132f0565b811461334057600080fd5b50565b6000813590506133528161332c565b92915050565b6000806040838503121561336f5761336e6130f6565b5b600061337d85828601613343565b925050602061338e8582860161328e565b9150509250929050565b6000806000606084860312156133b1576133b06130f6565b5b60006133bf86828701613343565b93505060206133d086828701613343565b92505060406133e18682870161328e565b9150509250925092565b60008060408385031215613402576134016130f6565b5b60006134108582860161328e565b92505060206134218582860161328e565b9150509250929050565b6134348161326d565b82525050565b600060408201905061344f6000830185613302565b61345c602083018461342b565b9392505050565b600080fd5b600060a0828403121561347e5761347d613463565b5b81905092915050565b600080fd5b600080fd5b600080fd5b60008083601f8401126134ac576134ab613487565b5b8235905067ffffffffffffffff8111156134c9576134c861348c565b5b6020830191508360018202830111156134e5576134e4613491565b5b9250929050565b600080600060408486031215613505576135046130f6565b5b600084013567ffffffffffffffff811115613523576135226130fb565b5b61352f86828701613468565b935050602084013567ffffffffffffffff8111156135505761354f6130fb565b5b61355c86828701613496565b92509250509250925092565b600060208201905061357d600083018461342b565b92915050565b600060208284031215613599576135986130f6565b5b60006135a784828501613343565b91505092915050565b6135b981613185565b81146135c457600080fd5b50565b6000813590506135d6816135b0565b92915050565b600080604083850312156135f3576135f26130f6565b5b600061360185828601613343565b9250506020613612858286016135c7565b9150509250929050565b600080fd5b7f4e487b7100000000000000000000000000000000000000000000000000000000600052604160045260246000fd5b61365982613201565b810181811067ffffffffffffffff8211171561367857613677613621565b5b80604052505050565b600061368b6130ec565b90506136978282613650565b919050565b600067ffffffffffffffff8211156136b7576136b6613621565b5b6136c082613201565b9050602081019050919050565b82818337600083830152505050565b60006136ef6136ea8461369c565b613681565b90508281526020810184848401111561370b5761370a61361c565b5b6137168482856136cd565b509392505050565b600082601f83011261373357613732613487565b5b81356137438482602086016136dc565b91505092915050565b60008060008060808587031215613766576137656130f6565b5b600061377487828801613343565b945050602061378587828801613343565b93505060406137968782880161328e565b925050606085013567ffffffffffffffff8111156137b7576137b66130fb565b5b6137c38782880161371e565b91505092959194509250565b60006bffffffffffffffffffffffff82169050919050565b6137f0816137cf565b81146137fb57600080fd5b50565b60008135905061380d816137e7565b92915050565b60008060006060848603121561382c5761382b6130f6565b5b600061383a8682870161328e565b935050602061384b86828701613343565b925050604061385c868287016137fe565b9150509250925092565b6000806040838503121561387d5761387c6130f6565b5b600061388b85828601613343565b925050602061389c85828601613343565b9150509250929050565b7f4e487b7100000000000000000000000000000000000000000000000000000000600052602260045260246000fd5b600060028204905060018216806138ed57607f821691505b602082108103613900576138ff6138a6565b5b50919050565b7f4552433732313a20617070726f76616c20746f2063757272656e74206f776e6560008201527f7200000000000000000000000000000000000000000000000000000000000000602082015250565b60006139626021836131c6565b915061396d82613906565b604082019050919050565b6000602082019050818103600083015261399181613955565b9050919050565b7f4552433732313a20617070726f76652063616c6c6572206973206e6f7420746f60008201527f6b656e206f776e6572206f7220617070726f76656420666f7220616c6c000000602082015250565b60006139f4603d836131c6565b91506139ff82613998565b604082019050919050565b60006020820190508181036000830152613a23816139e7565b9050919050565b7f4552433732313a2063616c6c6572206973206e6f7420746f6b656e206f776e6560008201527f72206f7220617070726f76656400000000000000000000000000000000000000602082015250565b6000613a86602d836131c6565b9150613a9182613a2a565b604082019050919050565b60006020820190508181036000830152613ab581613a79565b9050919050565b7f4e487b7100000000000000000000000000000000000000000000000000000000600052601160045260246000fd5b6000613af68261326d565b9150613b018361326d565b9250828202613b0f8161326d565b91508282048414831517613b2657613b25613abc565b5b5092915050565b7f4e487b7100000000000000000000000000000000000000000000000000000000600052601260045260246000fd5b6000613b678261326d565b9150613b728361326d565b925082613b8257613b81613b2d565b5b828204905092915050565b7f496e76616c696420766f75636865720000000000000000000000000000000000600082015250565b6000613bc3600f836131c6565b9150613bce82613b8d565b602082019050919050565b60006020820190508181036000830152613bf281613bb6565b9050919050565b7f496e73756666696369656e742066756e64730000000000000000000000000000600082015250565b6000613c2f6012836131c6565b9150613c3a82613bf9565b602082019050919050565b60006020820190508181036000830152613c5e81613c22565b9050919050565b7f566f756368657220616c72656164792075736564000000000000000000000000600082015250565b6000613c9b6014836131c6565b9150613ca682613c65565b602082019050919050565b60006020820190508181036000830152613cca81613c8e565b9050919050565b600060208284031215613ce757613ce66130f6565b5b6000613cf5848285016137fe565b91505092915050565b7f66656520746f6f20686967680000000000000000000000000000000000000000600082015250565b6000613d34600c836131c6565b9150613d3f82613cfe565b602082019050919050565b60006020820190508181036000830152613d6381613d27565b9050919050565b600080fd5b600080fd5b600080fd5b60008083356001602003843603038112613d9657613d95613d6a565b5b80840192508235915067ffffffffffffffff821115613db857613db7613d6f565b5b602083019250600182023603831315613dd457613dd3613d74565b5b509250929050565b6000613de883856131c6565b9350613df58385846136cd565b613dfe83613201565b840190509392505050565b6000604082019050613e1e600083018661342b565b8181036020830152613e31818486613ddc565b9050949350505050565b613e44816137cf565b82525050565b6000604082019050613e5f600083018561342b565b613e6c6020830184613e3b565b9392505050565b7f4e6f7420746f6b656e206f776e65720000000000000000000000000000000000600082015250565b6000613ea9600f836131c6565b9150613eb482613e73565b602082019050919050565b60006020820190508181036000830152613ed881613e9c565b9050919050565b7f4552433732313a20696e76616c696420746f6b656e2049440000000000000000600082015250565b6000613f156018836131c6565b9150613f2082613edf565b602082019050919050565b60006020820190508181036000830152613f4481613f08565b9050919050565b7f4552433732313a2061646472657373207a65726f206973206e6f74206120766160008201527f6c6964206f776e65720000000000000000000000000000000000000000000000602082015250565b6000613fa76029836131c6565b9150613fb282613f4b565b604082019050919050565b60006020820190508181036000830152613fd681613f9a565b9050919050565b600081905092915050565b6000613ff3826131bb565b613ffd8185613fdd565b935061400d8185602086016131d7565b80840191505092915050565b60006140258285613fe8565b91506140318284613fe8565b91508190509392505050565b600081905092915050565b6000614054838561403d565b93506140618385846136cd565b82840190509392505050565b600061407a828486614048565b91508190509392505050565b6000819050919050565b61409981614086565b82525050565b600060c0820190506140b46000830189614090565b6140c16020830188614090565b6140ce604083018761342b565b6140db6060830186613302565b6140e86080830185613e3b565b6140f560a083018461342b565b979650505050505050565b7f4f776e61626c653a206e6577206f776e657220697320746865207a65726f206160008201527f6464726573730000000000000000000000000000000000000000000000000000602082015250565b600061415c6026836131c6565b915061416782614100565b604082019050919050565b6000602082019050818103600083015261418b8161414f565b9050919050565b7f4552433732313a207472616e736665722066726f6d20696e636f72726563742060008201527f6f776e6572000000000000000000000000000000000000000000000000000000602082015250565b60006141ee6025836131c6565b91506141f982614192565b604082019050919050565b6000602082019050818103600083015261421d816141e1565b9050919050565b7f4552433732313a207472616e7366657220746f20746865207a65726f2061646460008201527f7265737300000000000000000000000000000000000000000000000000000000602082015250565b60006142806024836131c6565b915061428b82614224565b604082019050919050565b600060208201905081810360008301526142af81614273565b9050919050565b7f5265656e7472616e637947756172643a207265656e7472616e742063616c6c00600082015250565b60006142ec601f836131c6565b91506142f7826142b6565b602082019050919050565b6000602082019050818103600083015261431b816142df565b9050919050565b7f4552433732313a206d696e7420746f20746865207a65726f2061646472657373600082015250565b60006143586020836131c6565b915061436382614322565b602082019050919050565b600060208201905081810360008301526143878161434b565b9050919050565b7f4552433732313a20746f6b656e20616c7265616479206d696e74656400000000600082015250565b60006143c4601c836131c6565b91506143cf8261438e565b602082019050919050565b600060208201905081810360008301526143f3816143b7565b9050919050565b7f45524337323155524953746f726167653a2055524920736574206f66206e6f6e60008201527f6578697374656e7420746f6b656e000000000000000000000000000000000000602082015250565b6000614456602e836131c6565b9150614461826143fa565b604082019050919050565b6000602082019050818103600083015261448581614449565b9050919050565b60008190508160005260206000209050919050565b60006020601f8301049050919050565b600082821b905092915050565b6000600883026144ee7fffffffffffffffffffffffffffffffffffffffffffffffffffffffffffffffff826144b1565b6144f886836144b1565b95508019841693508086168417925050509392505050565b6000819050919050565b600061453561453061452b8461326d565b614510565b61326d565b9050919050565b6000819050919050565b61454f8361451a565b61456361455b8261453c565b8484546144be565b825550505050565b600090565b61457861456b565b614583818484614546565b505050565b5b818110156145a75761459c600082614570565b600181019050614589565b5050565b601f8211156145ec576145bd8161448c565b6145c6846144a1565b810160208510156145d5578190505b6145e96145e1856144a1565b830182614588565b50505b505050565b600082821c905092915050565b600061460f600019846008026145f1565b1980831691505092915050565b600061462883836145fe565b9150826002028217905092915050565b614641826131bb565b67ffffffffffffffff81111561465a57614659613621565b5b61466482546138d5565b61466f8282856145ab565b600060209050601f8311600181146146a25760008415614690578287015190505b61469a858261461c565b865550614702565b601f1984166146b08661448c565b60005b828110156146d8578489015182556001820191506020850194506020810190506146b3565b868310156146f557848901516146f1601f8916826145fe565b8355505b6001600288020188555050505b505050505050565b7f455243323938313a20726f79616c7479206665652077696c6c2065786365656460008201527f2073616c65507269636500000000000000000000000000000000000000000000602082015250565b6000614766602a836131c6565b91506147718261470a565b604082019050919050565b6000602082019050818103600083015261479581614759565b9050919050565b7f455243323938313a20496e76616c696420706172616d65746572730000000000600082015250565b60006147d2601b836131c6565b91506147dd8261479c565b602082019050919050565b60006020820190508181036000830152614801816147c5565b9050919050565b7f416464726573733a20696e73756666696369656e742062616c616e6365000000600082015250565b600061483e601d836131c6565b915061484982614808565b602082019050919050565b6000602082019050818103600083015261486d81614831565b9050919050565b50565b600061488460008361403d565b915061488f82614874565b600082019050919050565b60006148a582614877565b9150819050919050565b7f416464726573733a20756e61626c6520746f2073656e642076616c75652c207260008201527f6563697069656e74206d61792068617665207265766572746564000000000000602082015250565b600061490b603a836131c6565b9150614916826148af565b604082019050919050565b6000602082019050818103600083015261493a816148fe565b9050919050565b7f4f776e61626c653a2063616c6c6572206973206e6f7420746865206f776e6572600082015250565b60006149776020836131c6565b915061498282614941565b602082019050919050565b600060208201905081810360008301526149a68161496a565b9050919050565b7f4552433732313a20617070726f766520746f2063616c6c657200000000000000600082015250565b60006149e36019836131c6565b91506149ee826149ad565b602082019050919050565b60006020820190508181036000830152614a12816149d6565b9050919050565b7f4552433732313a207472616e7366657220746f206e6f6e20455243373231526560008201527f63656976657220696d706c656d656e7465720000000000000000000000000000602082015250565b6000614a756032836131c6565b9150614a8082614a19565b604082019050919050565b60006020820190508181036000830152614aa481614a68565b9050919050565b600081519050919050565b600082825260208201905092915050565b6000614ad282614aab565b614adc8185614ab6565b9350614aec8185602086016131d7565b614af581613201565b840191505092915050565b6000608082019050614b156000830187613302565b614b226020830186613302565b614b2f604083018561342b565b8181036060830152614b418184614ac7565b905095945050505050565b600081519050614b5b8161312c565b92915050565b600060208284031215614b7757614b766130f6565b5b6000614b8584828501614b4c565b91505092915050565b7f1901000000000000000000000000000000000000000000000000000000000000600082015250565b6000614bc4600283613fdd565b9150614bcf82614b8e565b600282019050919050565b6000819050919050565b614bf5614bf082614086565b614bda565b82525050565b6000614c0682614bb7565b9150614c128285614be4565b602082019150614c228284614be4565b6020820191508190509392505050565b7f4e487b7100000000000000000000000000000000000000000000000000000000600052602160045260246000fd5b7f45434453413a20696e76616c6964207369676e61747572650000000000000000600082015250565b6000614c976018836131c6565b9150614ca282614c61565b602082019050919050565b60006020820190508181036000830152614cc681614c8a565b9050919050565b7f45434453413a20696e76616c6964207369676e6174757265206c656e67746800600082015250565b6000614d03601f836131c6565b9150614d0e82614ccd565b602082019050919050565b60006020820190508181036000830152614d3281614cf6565b9050919050565b7f45434453413a20696e76616c6964207369676e6174757265202773272076616c60008201527f7565000000000000000000000000000000000000000000000000000000000000602082015250565b6000614d956022836131c6565b9150614da082614d39565b604082019050919050565b60006020820190508181036000830152614dc481614d88565b9050919050565b600060a082019050614de06000830188614090565b614ded6020830187614090565b614dfa6040830186614090565b614e07606083018561342b565b614e146080830184613302565b9695505050505050565b600060ff82169050919050565b614e3481614e1e565b82525050565b6000608082019050614e4f6000830187614090565b614e5c6020830186614e2b565b614e696040830185614090565b614e766060830184614090565b9594505050505056fea264697066735822122029939d1fb70b55e8f83f89f54462da9384974d9e247f672ab3ec06612d47597664736f6c63430008180033",
  "linkReferences": {},
  "deployedLinkReferences": {}
}