{
  "_format": "hh-sol-artifact-1",
  "contractName": "LazyNFT",
  "sourceName": "contracts/LazyNFT.sol",
  "abi": [
    {
      "inputs": [],
      "stateMutability": "nonpayable",
      "type": "constructor"
    },
    {
      "anonymous": false,
      "inputs": [
        {
          "indexed": true,
          "internalType": "address",
          "name": "owner",
          "type": "address"
        },
        {
          "indexed": true,
          "internalType": "address",
          "name": "approved",
          "type": "address"
        },
        {
          "indexed": true,
          "internalType": "uint256",
          "name": "tokenId",
          "type": "uint256"
        }
      ],
      "name": "Approval",
      "type": "event"
    },
    {
      "anonymous": false,
      "inputs": [
        {
          "indexed": true,
          "internalType": "address",
          "name": "owner",
          "type": "address"
        },
        {
          "indexed": true,
          "internalType": "address",
          "name": "operator",
          "type": "address"
        },
        {
          "indexed": false,
          "internalType": "bool",
          "name": "approved",
          "type": "bool"
        }
      ],
      "name": "ApprovalForAll",
      "type": "event"
    },
    {
      "anonymous": false,
      "inputs": [
        {
          "indexed": true,
          "internalType": "address",
          "name": "owner",
          "type": "address"
        },
        {
          "indexed": false,
          "internalType": "uint256",
          "name": "tokenId",
          "type": "uint256"
        }
      ],
      "name": "Burned",
      "type": "event"
    },
    {
      "anonymous": false,
      "inputs": [
        {
          "indexed": true,
          "internalType": "address",
          "name": "creator",
          "type": "address"
        },
        {
          "indexed": true,
          "internalType": "address",
          "name": "owner",
          "type": "address"
        },
        {
          "indexed": false,
          "internalType": "uint256",
          "name": "tokenId",
          "type": "uint256"
        },
        {
          "indexed": false,
          "internalType": "string",
          "name": "tokenURI",
          "type": "string"
        }
      ],
      "name": "Minted",
      "type": "event"
    },
    {
      "anonymous": false,
      "inputs": [
        {
          "indexed": true,
          "internalType": "address",
          "name": "previousOwner",
          "type": "address"
        },
        {
          "indexed": true,
          "internalType": "address",
          "name": "newOwner",
          "type": "address"
        }
      ],
      "name": "OwnershipTransferred",
      "type": "event"
    },
    {
      "anonymous": false,
      "inputs": [
        {
          "indexed": true,
          "internalType": "address",
          "name": "creator",
          "type": "address"
        },
        {
          "indexed": false,
          "internalType": "uint256",
          "name": "tokenId",
          "type": "uint256"
        },
        {
          "indexed": false,
          "internalType": "uint256",
          "name": "amount",
          "type": "uint256"
        }
      ],
      "name": "RoyaltyPaid",
      "type": "event"
    },
    {
      "anonymous": false,
      "inputs": [
        {
          "indexed": true,
          "internalType": "address",
          "name": "from",
          "type": "address"
        },
        {
          "indexed": true,
          "internalType": "address",
          "name": "to",
          "type": "address"
        },
        {
          "indexed": true,
          "internalType": "uint256",
          "name": "tokenId",
          "type": "uint256"
        }
      ],
      "name": "Transfer",
      "type": "event"
    },
    {
      "anonymous": false,
      "inputs": [
        {
          "indexed": true,
          "internalType": "address",
          "name": "from",
          "type": "address"
        },
        {
          "indexed": true,
          "internalType": "address",
          "name": "to",
          "type": "address"
        },
        {
          "indexed": false,
          "internalType": "uint256",
          "name": "tokenId",
          "type": "uint256"
        }
      ],
      "name": "Transferred",
      "type": "event"
    },
    {
      "inputs": [
        {
          "components": [
            {
              "internalType": "string",
              "name": "tokenURI",
              "type": "string"
            },
            {
              "internalType": "uint256",
              "name": "minPrice",
              "type": "uint256"
            },
            {
              "internalType": "address",
              "name": "creator",
              "type": "address"
            },
            {
              "internalType": "uint256",
              "name": "nonce",
              "type": "uint256"
            }
          ],
          "internalType": "struct LazyNFT.NFTVoucher",
          "name": "voucher",
          "type": "tuple"
        },
        {
          "internalType": "bytes",
          "name": "signature",
          "type": "bytes"
        }
      ],
      "name": "_verify",
      "outputs": [
        {
          "internalType": "address",
          "name": "",
          "type": "address"
        }
      ],
      "stateMutability": "view",
      "type": "function"
    },
    {
      "inputs": [
        {
          "internalType": "address",
          "name": "to",
          "type": "address"
        },
        {
          "internalType": "uint256",
          "name": "tokenId",
          "type": "uint256"
        }
      ],
      "name": "approve",
      "outputs": [],
      "stateMutability": "nonpayable",
      "type": "function"
    },
    {
      "inputs": [
        {
          "internalType": "address",
          "name": "owner",
          "type": "address"
        }
      ],
      "name": "balanceOf",
      "outputs": [
        {
          "internalType": "uint256",
          "name": "",
          "type": "uint256"
        }
      ],
      "stateMutability": "view",
      "type": "function"
    },
    {
      "inputs": [
        {
          "internalType": "uint256",
          "name": "tokenId",
          "type": "uint256"
        }
      ],
      "name": "burn",
      "outputs": [],
      "stateMutability": "nonpayable",
      "type": "function"
    },
    {
      "inputs": [
        {
          "internalType": "uint256",
          "name": "tokenId",
          "type": "uint256"
        }
      ],
      "name": "getApproved",
      "outputs": [
        {
          "internalType": "address",
          "name": "",
          "type": "address"
        }
      ],
      "stateMutability": "view",
      "type": "function"
    },
    {
      "inputs": [],
      "name": "getCurrentTokenId",
      "outputs": [
        {
          "internalType": "uint256",
          "name": "",
          "type": "uint256"
        }
      ],
      "stateMutability": "view",
      "type": "function"
    },
    {
      "inputs": [
        {
          "internalType": "address",
          "name": "owner",
          "type": "address"
        },
        {
          "internalType": "address",
          "name": "operator",
          "type": "address"
        }
      ],
      "name": "isApprovedForAll",
      "outputs": [
        {
          "internalType": "bool",
          "name": "",
          "type": "bool"
        }
      ],
      "stateMutability": "view",
      "type": "function"
    },
    {
      "inputs": [],
      "name": "name",
      "outputs": [
        {
          "internalType": "string",
          "name": "",
          "type": "string"
        }
      ],
      "stateMutability": "view",
      "type": "function"
    },
    {
      "inputs": [],
      "name": "owner",
      "outputs": [
        {
          "internalType": "address",
          "name": "",
          "type": "address"
        }
      ],
      "stateMutability": "view",
      "type": "function"
    },
    {
      "inputs": [
        {
          "internalType": "uint256",
          "name": "tokenId",
          "type": "uint256"
        }
      ],
      "name": "ownerOf",
      "outputs": [
        {
          "internalType": "address",
          "name": "",
          "type": "address"
        }
      ],
      "stateMutability": "view",
      "type": "function"
    },
    {
      "inputs": [
        {
          "components": [
            {
              "internalType": "string",
              "name": "tokenURI",
              "type": "string"
            },
            {
              "internalType": "uint256",
              "name": "minPrice",
              "type": "uint256"
            },
            {
              "internalType": "address",
              "name": "creator",
              "type": "address"
            },
            {
              "internalType": "uint256",
              "name": "nonce",
              "type": "uint256"
            }
          ],
          "internalType": "struct LazyNFT.NFTVoucher",
          "name": "voucher",
          "type": "tuple"
        },
        {
          "internalType": "bytes",
          "name": "signature",
          "type": "bytes"
        }
      ],
      "name": "redeem",
      "outputs": [
        {
          "internalType": "uint256",
          "name": "",
          "type": "uint256"
        }
      ],
      "stateMutability": "payable",
      "type": "function"
    },
    {
      "inputs": [],
      "name": "renounceOwnership",
      "outputs": [],
      "stateMutability": "nonpayable",
      "type": "function"
    },
    {
      "inputs": [
        {
          "internalType": "uint256",
          "name": "_tokenId",
          "type": "uint256"
        },
        {
          "internalType": "uint256",
          "name": "_salePrice",
          "type": "uint256"
        }
      ],
      "name": "royaltyInfo",
      "outputs": [
        {
          "internalType": "address",
          "name": "",
          "type": "address"
        },
        {
          "internalType": "uint256",
          "name": "",
          "type": "uint256"
        }
      ],
      "stateMutability": "view",
      "type": "function"
    },
    {
      "inputs": [
        {
          "internalType": "address",
          "name": "from",
          "type": "address"
        },
        {
          "internalType": "address",
          "name": "to",
          "type": "address"
        },
        {
          "internalType": "uint256",
          "name": "tokenId",
          "type": "uint256"
        }
      ],
      "name": "safeTransferFrom",
      "outputs": [],
      "stateMutability": "nonpayable",
      "type": "function"
    },
    {
      "inputs": [
        {
          "internalType": "address",
          "name": "from",
          "type": "address"
        },
        {
          "internalType": "address",
          "name": "to",
          "type": "address"
        },
        {
          "internalType": "uint256",
          "name": "tokenId",
          "type": "uint256"
        },
        {
          "internalType": "bytes",
          "name": "data",
          "type": "bytes"
        }
      ],
      "name": "safeTransferFrom",
      "outputs": [],
      "stateMutability": "nonpayable",
      "type": "function"
    },
    {
      "inputs": [
        {
          "internalType": "address",
          "name": "operator",
          "type": "address"
        },
        {
          "internalType": "bool",
          "name": "approved",
          "type": "bool"
        }
      ],
      "name": "setApprovalForAll",
      "outputs": [],
      "stateMutability": "nonpayable",
      "type": "function"
    },
    {
      "inputs": [
        {
          "internalType": "uint256",
          "name": "tokenId",
          "type": "uint256"
        },
        {
          "internalType": "address",
          "name": "receiver",
          "type": "address"
        },
        {
          "internalType": "uint96",
          "name": "feeNumerator",
          "type": "uint96"
        }
      ],
      "name": "setTokenRoyaltyPublic",
      "outputs": [],
      "stateMutability": "nonpayable",
      "type": "function"
    },
    {
      "inputs": [
        {
          "internalType": "bytes4",
          "name": "interfaceId",
          "type": "bytes4"
        }
      ],
      "name": "supportsInterface",
      "outputs": [
        {
          "internalType": "bool",
          "name": "",
          "type": "bool"
        }
      ],
      "stateMutability": "view",
      "type": "function"
    },
    {
      "inputs": [],
      "name": "symbol",
      "outputs": [
        {
          "internalType": "string",
          "name": "",
          "type": "string"
        }
      ],
      "stateMutability": "view",
      "type": "function"
    },
    {
      "inputs": [
        {
          "internalType": "uint256",
          "name": "tokenId",
          "type": "uint256"
        }
      ],
      "name": "tokenURI",
      "outputs": [
        {
          "internalType": "string",
          "name": "",
          "type": "string"
        }
      ],
      "stateMutability": "view",
      "type": "function"
    },
    {
      "inputs": [
        {
          "internalType": "address",
          "name": "from",
          "type": "address"
        },
        {
          "internalType": "address",
          "name": "to",
          "type": "address"
        },
        {
          "internalType": "uint256",
          "name": "tokenId",
          "type": "uint256"
        }
      ],
      "name": "transferFrom",
      "outputs": [],
      "stateMutability": "nonpayable",
      "type": "function"
    },
    {
      "inputs": [
        {
          "internalType": "address",
          "name": "newOwner",
          "type": "address"
        }
      ],
      "name": "transferOwnership",
      "outputs": [],
      "stateMutability": "nonpayable",
      "type": "function"
    },
    {
      "inputs": [
        {
          "internalType": "address",
          "name": "",
          "type": "address"
        },
        {
          "internalType": "uint256",
          "name": "",
          "type": "uint256"
        }
      ],
      "name": "usedNonces",
      "outputs": [
        {
          "internalType": "bool",
          "name": "",
          "type": "bool"
        }
      ],
      "stateMutability": "view",
      "type": "function"
    }
  ],
  "bytecode": "0x6101406040523480156200001257600080fd5b506040518060400160405280600781526020017f4c617a794e4654000000000000000000000000000000000000000000000000008152506040518060400160405280600181526020017f31000000000000000000000000000000000000000000000000000000000000008152506040518060400160405280600781526020017f4c617a794e4654000000000000000000000000000000000000000000000000008152506040518060400160405280600481526020017f4c4e4654000000000000000000000000000000000000000000000000000000008152508160009081620000fc919062000575565b5080600190816200010e919062000575565b50505060008280519060200120905060008280519060200120905060007f8b73c3c69bb8fe3d512ecc4cf759cc79239f7b179b0ffacaa9a75d522b39400f90508260e081815250508161010081815250504660a081815250506200017a818484620001f160201b60201c565b608081815250503073ffffffffffffffffffffffffffffffffffffffff1660c08173ffffffffffffffffffffffffffffffffffffffff16815250508061012081815250505050505050620001e3620001d76200022d60201b60201c565b6200023560201b60201c565b6001600a819055506200072a565b600083838346306040516020016200020e959493929190620006cd565b6040516020818303038152906040528051906020012090509392505050565b600033905090565b6000600960009054906101000a900473ffffffffffffffffffffffffffffffffffffffff16905081600960006101000a81548173ffffffffffffffffffffffffffffffffffffffff021916908373ffffffffffffffffffffffffffffffffffffffff1602179055508173ffffffffffffffffffffffffffffffffffffffff168173ffffffffffffffffffffffffffffffffffffffff167f8be0079c531659141344cd1fd0a4f28419497f9722a3daafe3b4186f6b6457e060405160405180910390a35050565b600081519050919050565b7f4e487b7100000000000000000000000000000000000000000000000000000000600052604160045260246000fd5b7f4e487b7100000000000000000000000000000000000000000000000000000000600052602260045260246000fd5b600060028204905060018216806200037d57607f821691505b60208210810362000393576200039262000335565b5b50919050565b60008190508160005260206000209050919050565b60006020601f8301049050919050565b600082821b905092915050565b600060088302620003fd7fffffffffffffffffffffffffffffffffffffffffffffffffffffffffffffffff82620003be565b620004098683620003be565b95508019841693508086168417925050509392505050565b6000819050919050565b6000819050919050565b600062000456620004506200044a8462000421565b6200042b565b62000421565b9050919050565b6000819050919050565b620004728362000435565b6200048a62000481826200045d565b848454620003cb565b825550505050565b600090565b620004a162000492565b620004ae81848462000467565b505050565b5b81811015620004d657620004ca60008262000497565b600181019050620004b4565b5050565b601f8211156200052557620004ef8162000399565b620004fa84620003ae565b810160208510156200050a578190505b620005226200051985620003ae565b830182620004b3565b50505b505050565b600082821c905092915050565b60006200054a600019846008026200052a565b1980831691505092915050565b600062000565838362000537565b9150826002028217905092915050565b6200058082620002fb565b67ffffffffffffffff8111156200059c576200059b62000306565b5b620005a8825462000364565b620005b5828285620004da565b600060209050601f831160018114620005ed5760008415620005d8578287015190505b620005e4858262000557565b86555062000654565b601f198416620005fd8662000399565b60005b82811015620006275784890151825560018201915060208501945060208101905062000600565b8683101562000647578489015162000643601f89168262000537565b8355505b6001600288020188555050505b505050505050565b6000819050919050565b62000671816200065c565b82525050565b620006828162000421565b82525050565b600073ffffffffffffffffffffffffffffffffffffffff82169050919050565b6000620006b58262000688565b9050919050565b620006c781620006a8565b82525050565b600060a082019050620006e4600083018862000666565b620006f3602083018762000666565b62000702604083018662000666565b62000711606083018562000677565b620007206080830184620006bc565b9695505050505050565b60805160a05160c05160e0516101005161012051614d0b6200077a60003960006125b3015260006125f5015260006125d4015260006125090152600061255f015260006125880152614d0b6000f3fe6080604052600436106101405760003560e01c80636a8a6894116100b6578063a22cb4651161006f578063a22cb46514610488578063b88d4fde146104b1578063c87b56dd146104da578063d4e7ca8d14610517578063e985e9c514610540578063f2fde38b1461057d57610140565b80636a8a68941461037157806370a08231146103ae578063715018a6146103eb5780638da5cb5b1461040257806394e118491461042d57806395d89b411461045d57610140565b806323b872dd1161010857806323b872dd146102505780632a55205a1461027957806342842e0e146102b757806342966c68146102e057806356189236146103095780636352211e1461033457610140565b806301ffc9a71461014557806306fdde0314610182578063081812fc146101ad578063095ea7b3146101ea57806322b1c9b414610213575b600080fd5b34801561015157600080fd5b5061016c60048036038101906101679190613064565b6105a6565b60405161017991906130ac565b60405180910390f35b34801561018e57600080fd5b506101976105b8565b6040516101a49190613157565b60405180910390f35b3480156101b957600080fd5b506101d460048036038101906101cf91906131af565b61064a565b6040516101e1919061321d565b60405180910390f35b3480156101f657600080fd5b50610211600480360381019061020c9190613264565b610690565b005b34801561021f57600080fd5b5061023a6004803603810190610235919061332d565b6107a7565b604051610247919061321d565b60405180910390f35b34801561025c57600080fd5b50610277600480360381019061027291906133a9565b6108a0565b005b34801561028557600080fd5b506102a0600480360381019061029b91906133fc565b610900565b6040516102ae92919061344b565b60405180910390f35b3480156102c357600080fd5b506102de60048036038101906102d991906133a9565b610aea565b005b3480156102ec57600080fd5b50610307600480360381019061030291906131af565b610b0a565b005b34801561031557600080fd5b5061031e610bda565b60405161032b9190613474565b60405180910390f35b34801561034057600080fd5b5061035b600480360381019061035691906131af565b610beb565b604051610368919061321d565b60405180910390f35b34801561037d57600080fd5b5061039860048036038101906103939190613264565b610c71565b6040516103a591906130ac565b60405180910390f35b3480156103ba57600080fd5b506103d560048036038101906103d0919061348f565b610ca0565b6040516103e29190613474565b60405180910390f35b3480156103f757600080fd5b50610400610d57565b005b34801561040e57600080fd5b50610417610d6b565b604051610424919061321d565b60405180910390f35b6104476004803603810190610442919061332d565b610d95565b6040516104549190613474565b60405180910390f35b34801561046957600080fd5b5061047261117b565b60405161047f9190613157565b60405180910390f35b34801561049457600080fd5b506104af60048036038101906104aa91906134e8565b61120d565b005b3480156104bd57600080fd5b506104d860048036038101906104d39190613658565b611223565b005b3480156104e657600080fd5b5061050160048036038101906104fc91906131af565b611285565b60405161050e9190613157565b60405180910390f35b34801561052357600080fd5b5061053e6004803603810190610539919061371f565b611397565b005b34801561054c57600080fd5b5061056760048036038101906105629190613772565b6113af565b60405161057491906130ac565b60405180910390f35b34801561058957600080fd5b506105a4600480360381019061059f919061348f565b611443565b005b60006105b1826114c6565b9050919050565b6060600080546105c7906137e1565b80601f01602080910402602001604051908101604052809291908181526020018280546105f3906137e1565b80156106405780601f1061061557610100808354040283529160200191610640565b820191906000526020600020905b81548152906001019060200180831161062357829003601f168201915b5050505050905090565b600061065582611540565b6004600083815260200190815260200160002060009054906101000a900473ffffffffffffffffffffffffffffffffffffffff169050919050565b600061069b82610beb565b90508073ffffffffffffffffffffffffffffffffffffffff168373ffffffffffffffffffffffffffffffffffffffff160361070b576040517f08c379a000000000000000000000000000000000000000000000000000000000815260040161070290613884565b60405180910390fd5b8073ffffffffffffffffffffffffffffffffffffffff1661072a61158b565b73ffffffffffffffffffffffffffffffffffffffff16148061075957506107588161075361158b565b6113af565b5b610798576040517f08c379a000000000000000000000000000000000000000000000000000000000815260040161078f90613916565b60405180910390fd5b6107a28383611593565b505050565b6000807fec5fde1f1ddc2916bda5f2f02e6c514e6176c985a2d8bffb5754957d8da1f98d8580600001906107db9190613945565b6040516107e99291906139d8565b60405180910390208660200135876040016020810190610809919061348f565b8860600135604051602001610822959493929190613a0a565b60405160208183030381529060405280519060200120905060006108458261164c565b90506108958186868080601f016020809104026020016040519081016040528093929190818152602001838380828437600081840152601f19601f82011690508083019250505050505050611666565b925050509392505050565b6108b16108ab61158b565b8261168d565b6108f0576040517f08c379a00000000000000000000000000000000000000000000000000000000081526004016108e790613acf565b60405180910390fd5b6108fb838383611722565b505050565b6000806000600860008681526020019081526020016000206040518060400160405290816000820160009054906101000a900473ffffffffffffffffffffffffffffffffffffffff1673ffffffffffffffffffffffffffffffffffffffff1673ffffffffffffffffffffffffffffffffffffffff1681526020016000820160149054906101000a90046bffffffffffffffffffffffff166bffffffffffffffffffffffff166bffffffffffffffffffffffff16815250509050600073ffffffffffffffffffffffffffffffffffffffff16816000015173ffffffffffffffffffffffffffffffffffffffff1603610a955760076040518060400160405290816000820160009054906101000a900473ffffffffffffffffffffffffffffffffffffffff1673ffffffffffffffffffffffffffffffffffffffff1673ffffffffffffffffffffffffffffffffffffffff1681526020016000820160149054906101000a90046bffffffffffffffffffffffff166bffffffffffffffffffffffff166bffffffffffffffffffffffff168152505090505b6000610a9f611a1b565b6bffffffffffffffffffffffff1682602001516bffffffffffffffffffffffff1686610acb9190613b1e565b610ad59190613b8f565b90508160000151819350935050509250929050565b610b0583838360405180602001604052806000815250611223565b505050565b3373ffffffffffffffffffffffffffffffffffffffff16610b2a82610beb565b73ffffffffffffffffffffffffffffffffffffffff1614610b80576040517f08c379a0000000000000000000000000000000000000000000000000000000008152600401610b7790613c0c565b60405180910390fd5b610b8981611a25565b3373ffffffffffffffffffffffffffffffffffffffff167f696de425f79f4a40bc6d2122ca50507f0efbeabbff86a84871b7196ab8ea8df782604051610bcf9190613474565b60405180910390a250565b6000610be6600b611a78565b905090565b600080610bf783611a86565b9050600073ffffffffffffffffffffffffffffffffffffffff168173ffffffffffffffffffffffffffffffffffffffff1603610c68576040517f08c379a0000000000000000000000000000000000000000000000000000000008152600401610c5f90613c78565b60405180910390fd5b80915050919050565b600c6020528160005260406000206020528060005260406000206000915091509054906101000a900460ff1681565b60008073ffffffffffffffffffffffffffffffffffffffff168273ffffffffffffffffffffffffffffffffffffffff1603610d10576040517f08c379a0000000000000000000000000000000000000000000000000000000008152600401610d0790613d0a565b60405180910390fd5b600360008373ffffffffffffffffffffffffffffffffffffffff1673ffffffffffffffffffffffffffffffffffffffff168152602001908152602001600020549050919050565b610d5f611ac3565b610d696000611b41565b565b6000600960009054906101000a900473ffffffffffffffffffffffffffffffffffffffff16905090565b6000610d9f611c07565b6000610dac8585856107a7565b9050846040016020810190610dc1919061348f565b73ffffffffffffffffffffffffffffffffffffffff168173ffffffffffffffffffffffffffffffffffffffff1614610e2e576040517f08c379a0000000000000000000000000000000000000000000000000000000008152600401610e2590613d76565b60405180910390fd5b8460200135341015610e75576040517f08c379a0000000000000000000000000000000000000000000000000000000008152600401610e6c90613de2565b60405180910390fd5b600c60008273ffffffffffffffffffffffffffffffffffffffff1673ffffffffffffffffffffffffffffffffffffffff16815260200190815260200160002060008660600135815260200190815260200160002060009054906101000a900460ff1615610f17576040517f08c379a0000000000000000000000000000000000000000000000000000000008152600401610f0e90613e4e565b60405180910390fd5b6001600c60008373ffffffffffffffffffffffffffffffffffffffff1673ffffffffffffffffffffffffffffffffffffffff16815260200190815260200160002060008760600135815260200190815260200160002060006101000a81548160ff021916908315150217905550610f8e600b611c56565b6000610f9a600b611a78565b9050610fa63382611c6c565b61100281878060000190610fba9190613945565b8080601f016020809104026020016040519081016040528093929190818152602001838380828437600081840152601f19601f82011690508083019250505050505050611e89565b60006127106101f4346110159190613b1e565b61101f9190613b8f565b905061104082886040016020810190611038919061348f565b6101f4611ef6565b61107b34886040016020810190611057919061348f565b73ffffffffffffffffffffffffffffffffffffffff1661209d90919063ffffffff16565b3373ffffffffffffffffffffffffffffffffffffffff168760400160208101906110a5919061348f565b73ffffffffffffffffffffffffffffffffffffffff167fafe8c5a4c36942a61550534b714a0076ab46ef8ef23e361572aad8b7ca2ac27d848a80600001906110ed9190613945565b6040516110fc93929190613e9b565b60405180910390a3866040016020810190611117919061348f565b73ffffffffffffffffffffffffffffffffffffffff167fd4aced6a2fedafdf0ace70b949ff0a9877b479c1cf14ab3d84768281f270c9c7838360405161115e929190613ecd565b60405180910390a2819350505050611174612191565b9392505050565b60606001805461118a906137e1565b80601f01602080910402602001604051908101604052809291908181526020018280546111b6906137e1565b80156112035780601f106111d857610100808354040283529160200191611203565b820191906000526020600020905b8154815290600101906020018083116111e657829003601f168201915b5050505050905090565b61121f61121861158b565b838361219b565b5050565b61123461122e61158b565b8361168d565b611273576040517f08c379a000000000000000000000000000000000000000000000000000000000815260040161126a90613acf565b60405180910390fd5b61127f84848484612307565b50505050565b606061129082611540565b60006006600084815260200190815260200160002080546112b0906137e1565b80601f01602080910402602001604051908101604052809291908181526020018280546112dc906137e1565b80156113295780601f106112fe57610100808354040283529160200191611329565b820191906000526020600020905b81548152906001019060200180831161130c57829003601f168201915b50505050509050600061133a612363565b9050600081510361134f578192505050611392565b60008251111561138457808260405160200161136c929190613f32565b60405160208183030381529060405292505050611392565b61138d8461237a565b925050505b919050565b61139f611ac3565b6113aa838383611ef6565b505050565b6000600560008473ffffffffffffffffffffffffffffffffffffffff1673ffffffffffffffffffffffffffffffffffffffff16815260200190815260200160002060008373ffffffffffffffffffffffffffffffffffffffff1673ffffffffffffffffffffffffffffffffffffffff16815260200190815260200160002060009054906101000a900460ff16905092915050565b61144b611ac3565b600073ffffffffffffffffffffffffffffffffffffffff168173ffffffffffffffffffffffffffffffffffffffff16036114ba576040517f08c379a00000000000000000000000000000000000000000000000000000000081526004016114b190613fc8565b60405180910390fd5b6114c381611b41565b50565b60007f2a55205a000000000000000000000000000000000000000000000000000000007bffffffffffffffffffffffffffffffffffffffffffffffffffffffff1916827bffffffffffffffffffffffffffffffffffffffffffffffffffffffff191614806115395750611538826123e2565b5b9050919050565b611549816124c4565b611588576040517f08c379a000000000000000000000000000000000000000000000000000000000815260040161157f90613c78565b60405180910390fd5b50565b600033905090565b816004600083815260200190815260200160002060006101000a81548173ffffffffffffffffffffffffffffffffffffffff021916908373ffffffffffffffffffffffffffffffffffffffff160217905550808273ffffffffffffffffffffffffffffffffffffffff1661160683610beb565b73ffffffffffffffffffffffffffffffffffffffff167f8c5be1e5ebec7d5bd14f71427d1e84f3dd0314c0f7b2291e5b200ac8c7c3b92560405160405180910390a45050565b600061165f611659612505565b8361261f565b9050919050565b60008060006116758585612652565b91509150611682816126a3565b819250505092915050565b60008061169983610beb565b90508073ffffffffffffffffffffffffffffffffffffffff168473ffffffffffffffffffffffffffffffffffffffff1614806116db57506116da81856113af565b5b8061171957508373ffffffffffffffffffffffffffffffffffffffff166117018461064a565b73ffffffffffffffffffffffffffffffffffffffff16145b91505092915050565b8273ffffffffffffffffffffffffffffffffffffffff1661174282610beb565b73ffffffffffffffffffffffffffffffffffffffff1614611798576040517f08c379a000000000000000000000000000000000000000000000000000000000815260040161178f9061405a565b60405180910390fd5b600073ffffffffffffffffffffffffffffffffffffffff168273ffffffffffffffffffffffffffffffffffffffff1603611807576040517f08c379a00000000000000000000000000000000000000000000000000000000081526004016117fe906140ec565b60405180910390fd5b6118148383836001612809565b8273ffffffffffffffffffffffffffffffffffffffff1661183482610beb565b73ffffffffffffffffffffffffffffffffffffffff161461188a576040517f08c379a00000000000000000000000000000000000000000000000000000000081526004016118819061405a565b60405180910390fd5b6004600082815260200190815260200160002060006101000a81549073ffffffffffffffffffffffffffffffffffffffff02191690556001600360008573ffffffffffffffffffffffffffffffffffffffff1673ffffffffffffffffffffffffffffffffffffffff168152602001908152602001600020600082825403925050819055506001600360008473ffffffffffffffffffffffffffffffffffffffff1673ffffffffffffffffffffffffffffffffffffffff16815260200190815260200160002060008282540192505081905550816002600083815260200190815260200160002060006101000a81548173ffffffffffffffffffffffffffffffffffffffff021916908373ffffffffffffffffffffffffffffffffffffffff160217905550808273ffffffffffffffffffffffffffffffffffffffff168473ffffffffffffffffffffffffffffffffffffffff167fddf252ad1be2c89b69c2b068fc378daa952ba7f163c4a11628f55a4df523b3ef60405160405180910390a4611a1683838360016128f0565b505050565b6000612710905090565b611a2e816128f6565b6000600660008381526020019081526020016000208054611a4e906137e1565b905014611a7557600660008281526020019081526020016000206000611a749190612f9b565b5b50565b600081600001549050919050565b60006002600083815260200190815260200160002060009054906101000a900473ffffffffffffffffffffffffffffffffffffffff169050919050565b611acb61158b565b73ffffffffffffffffffffffffffffffffffffffff16611ae9610d6b565b73ffffffffffffffffffffffffffffffffffffffff1614611b3f576040517f08c379a0000000000000000000000000000000000000000000000000000000008152600401611b3690614158565b60405180910390fd5b565b6000600960009054906101000a900473ffffffffffffffffffffffffffffffffffffffff16905081600960006101000a81548173ffffffffffffffffffffffffffffffffffffffff021916908373ffffffffffffffffffffffffffffffffffffffff1602179055508173ffffffffffffffffffffffffffffffffffffffff168173ffffffffffffffffffffffffffffffffffffffff167f8be0079c531659141344cd1fd0a4f28419497f9722a3daafe3b4186f6b6457e060405160405180910390a35050565b6002600a5403611c4c576040517f08c379a0000000000000000000000000000000000000000000000000000000008152600401611c43906141c4565b60405180910390fd5b6002600a81905550565b6001816000016000828254019250508190555050565b600073ffffffffffffffffffffffffffffffffffffffff168273ffffffffffffffffffffffffffffffffffffffff1603611cdb576040517f08c379a0000000000000000000000000000000000000000000000000000000008152600401611cd290614230565b60405180910390fd5b611ce4816124c4565b15611d24576040517f08c379a0000000000000000000000000000000000000000000000000000000008152600401611d1b9061429c565b60405180910390fd5b611d32600083836001612809565b611d3b816124c4565b15611d7b576040517f08c379a0000000000000000000000000000000000000000000000000000000008152600401611d729061429c565b60405180910390fd5b6001600360008473ffffffffffffffffffffffffffffffffffffffff1673ffffffffffffffffffffffffffffffffffffffff16815260200190815260200160002060008282540192505081905550816002600083815260200190815260200160002060006101000a81548173ffffffffffffffffffffffffffffffffffffffff021916908373ffffffffffffffffffffffffffffffffffffffff160217905550808273ffffffffffffffffffffffffffffffffffffffff16600073ffffffffffffffffffffffffffffffffffffffff167fddf252ad1be2c89b69c2b068fc378daa952ba7f163c4a11628f55a4df523b3ef60405160405180910390a4611e856000838360016128f0565b5050565b611e92826124c4565b611ed1576040517f08c379a0000000000000000000000000000000000000000000000000000000008152600401611ec89061432e565b60405180910390fd5b80600660008481526020019081526020016000209081611ef191906144fa565b505050565b611efe611a1b565b6bffffffffffffffffffffffff16816bffffffffffffffffffffffff161115611f5c576040517f08c379a0000000000000000000000000000000000000000000000000000000008152600401611f539061463e565b60405180910390fd5b600073ffffffffffffffffffffffffffffffffffffffff168273ffffffffffffffffffffffffffffffffffffffff1603611fcb576040517f08c379a0000000000000000000000000000000000000000000000000000000008152600401611fc2906146aa565b60405180910390fd5b60405180604001604052808373ffffffffffffffffffffffffffffffffffffffff168152602001826bffffffffffffffffffffffff168152506008600085815260200190815260200160002060008201518160000160006101000a81548173ffffffffffffffffffffffffffffffffffffffff021916908373ffffffffffffffffffffffffffffffffffffffff16021790555060208201518160000160146101000a8154816bffffffffffffffffffffffff02191690836bffffffffffffffffffffffff160217905550905050505050565b804710156120e0576040517f08c379a00000000000000000000000000000000000000000000000000000000081526004016120d790614716565b60405180910390fd5b60008273ffffffffffffffffffffffffffffffffffffffff16826040516121069061475c565b60006040518083038185875af1925050503d8060008114612143576040519150601f19603f3d011682016040523d82523d6000602084013e612148565b606091505b505090508061218c576040517f08c379a0000000000000000000000000000000000000000000000000000000008152600401612183906147e3565b60405180910390fd5b505050565b6001600a81905550565b8173ffffffffffffffffffffffffffffffffffffffff168373ffffffffffffffffffffffffffffffffffffffff1603612209576040517f08c379a00000000000000000000000000000000000000000000000000000000081526004016122009061484f565b60405180910390fd5b80600560008573ffffffffffffffffffffffffffffffffffffffff1673ffffffffffffffffffffffffffffffffffffffff16815260200190815260200160002060008473ffffffffffffffffffffffffffffffffffffffff1673ffffffffffffffffffffffffffffffffffffffff16815260200190815260200160002060006101000a81548160ff0219169083151502179055508173ffffffffffffffffffffffffffffffffffffffff168373ffffffffffffffffffffffffffffffffffffffff167f17307eab39ab6107e8899845ad3d59bd9653f200f220920489ca2b5937696c31836040516122fa91906130ac565b60405180910390a3505050565b612312848484611722565b61231e84848484612a44565b61235d576040517f08c379a0000000000000000000000000000000000000000000000000000000008152600401612354906148e1565b60405180910390fd5b50505050565b606060405180602001604052806000815250905090565b606061238582611540565b600061238f612363565b905060008151116123af57604051806020016040528060008152506123da565b806123b984612bcb565b6040516020016123ca929190613f32565b6040516020818303038152906040525b915050919050565b60007f80ac58cd000000000000000000000000000000000000000000000000000000007bffffffffffffffffffffffffffffffffffffffffffffffffffffffff1916827bffffffffffffffffffffffffffffffffffffffffffffffffffffffff191614806124ad57507f5b5e139f000000000000000000000000000000000000000000000000000000007bffffffffffffffffffffffffffffffffffffffffffffffffffffffff1916827bffffffffffffffffffffffffffffffffffffffffffffffffffffffff1916145b806124bd57506124bc82612c99565b5b9050919050565b60008073ffffffffffffffffffffffffffffffffffffffff166124e683611a86565b73ffffffffffffffffffffffffffffffffffffffff1614159050919050565b60007f000000000000000000000000000000000000000000000000000000000000000073ffffffffffffffffffffffffffffffffffffffff163073ffffffffffffffffffffffffffffffffffffffff1614801561258157507f000000000000000000000000000000000000000000000000000000000000000046145b156125ae577f0000000000000000000000000000000000000000000000000000000000000000905061261c565b6126197f00000000000000000000000000000000000000000000000000000000000000007f00000000000000000000000000000000000000000000000000000000000000007f0000000000000000000000000000000000000000000000000000000000000000612d03565b90505b90565b6000828260405160200161263492919061496e565b60405160208183030381529060405280519060200120905092915050565b60008060418351036126935760008060006020860151925060408601519150606086015160001a905061268787828585612d3d565b9450945050505061269c565b60006002915091505b9250929050565b600060048111156126b7576126b66149a5565b5b8160048111156126ca576126c96149a5565b5b031561280657600160048111156126e4576126e36149a5565b5b8160048111156126f7576126f66149a5565b5b03612737576040517f08c379a000000000000000000000000000000000000000000000000000000000815260040161272e90614a20565b60405180910390fd5b6002600481111561274b5761274a6149a5565b5b81600481111561275e5761275d6149a5565b5b0361279e576040517f08c379a000000000000000000000000000000000000000000000000000000000815260040161279590614a8c565b60405180910390fd5b600360048111156127b2576127b16149a5565b5b8160048111156127c5576127c46149a5565b5b03612805576040517f08c379a00000000000000000000000000000000000000000000000000000000081526004016127fc90614b1e565b60405180910390fd5b5b50565b600073ffffffffffffffffffffffffffffffffffffffff168473ffffffffffffffffffffffffffffffffffffffff16141580156128735750600073ffffffffffffffffffffffffffffffffffffffff168373ffffffffffffffffffffffffffffffffffffffff1614155b156128de578273ffffffffffffffffffffffffffffffffffffffff168473ffffffffffffffffffffffffffffffffffffffff167fd1ba4ac2e2a11b5101f6cb4d978f514a155b421e8ec396d2d9abaf0bb02917ee846040516128d59190613474565b60405180910390a35b6128ea84848484612e1f565b50505050565b50505050565b600061290182610beb565b9050612911816000846001612809565b61291a82610beb565b90506004600083815260200190815260200160002060006101000a81549073ffffffffffffffffffffffffffffffffffffffff02191690556001600360008373ffffffffffffffffffffffffffffffffffffffff1673ffffffffffffffffffffffffffffffffffffffff168152602001908152602001600020600082825403925050819055506002600083815260200190815260200160002060006101000a81549073ffffffffffffffffffffffffffffffffffffffff021916905581600073ffffffffffffffffffffffffffffffffffffffff168273ffffffffffffffffffffffffffffffffffffffff167fddf252ad1be2c89b69c2b068fc378daa952ba7f163c4a11628f55a4df523b3ef60405160405180910390a4612a408160008460016128f0565b5050565b6000612a658473ffffffffffffffffffffffffffffffffffffffff16612e25565b15612bbe578373ffffffffffffffffffffffffffffffffffffffff1663150b7a02612a8e61158b565b8786866040518563ffffffff1660e01b8152600401612ab09493929190614b93565b6020604051808303816000875af1925050508015612aec57506040513d601f19601f82011682018060405250810190612ae99190614bf4565b60015b612b6e573d8060008114612b1c576040519150601f19603f3d011682016040523d82523d6000602084013e612b21565b606091505b506000815103612b66576040517f08c379a0000000000000000000000000000000000000000000000000000000008152600401612b5d906148e1565b60405180910390fd5b805181602001fd5b63150b7a0260e01b7bffffffffffffffffffffffffffffffffffffffffffffffffffffffff1916817bffffffffffffffffffffffffffffffffffffffffffffffffffffffff191614915050612bc3565b600190505b949350505050565b606060006001612bda84612e48565b01905060008167ffffffffffffffff811115612bf957612bf861352d565b5b6040519080825280601f01601f191660200182016040528015612c2b5781602001600182028036833780820191505090505b509050600082602001820190505b600115612c8e578080600190039150507f3031323334353637383961626364656600000000000000000000000000000000600a86061a8153600a8581612c8257612c81613b60565b5b04945060008503612c39575b819350505050919050565b60007f01ffc9a7000000000000000000000000000000000000000000000000000000007bffffffffffffffffffffffffffffffffffffffffffffffffffffffff1916827bffffffffffffffffffffffffffffffffffffffffffffffffffffffff1916149050919050565b60008383834630604051602001612d1e959493929190614c21565b6040516020818303038152906040528051906020012090509392505050565b6000807f7fffffffffffffffffffffffffffffff5d576e7357a4501ddfe92f46681b20a08360001c1115612d78576000600391509150612e16565b600060018787878760405160008152602001604052604051612d9d9493929190614c90565b6020604051602081039080840390855afa158015612dbf573d6000803e3d6000fd5b505050602060405103519050600073ffffffffffffffffffffffffffffffffffffffff168173ffffffffffffffffffffffffffffffffffffffff1603612e0d57600060019250925050612e16565b80600092509250505b94509492505050565b50505050565b6000808273ffffffffffffffffffffffffffffffffffffffff163b119050919050565b600080600090507a184f03e93ff9f4daa797ed6e38ed64bf6a1f0100000000000000008310612ea6577a184f03e93ff9f4daa797ed6e38ed64bf6a1f0100000000000000008381612e9c57612e9b613b60565b5b0492506040810190505b6d04ee2d6d415b85acef81000000008310612ee3576d04ee2d6d415b85acef81000000008381612ed957612ed8613b60565b5b0492506020810190505b662386f26fc100008310612f1257662386f26fc100008381612f0857612f07613b60565b5b0492506010810190505b6305f5e1008310612f3b576305f5e1008381612f3157612f30613b60565b5b0492506008810190505b6127108310612f60576127108381612f5657612f55613b60565b5b0492506004810190505b60648310612f835760648381612f7957612f78613b60565b5b0492506002810190505b600a8310612f92576001810190505b80915050919050565b508054612fa7906137e1565b6000825580601f10612fb95750612fd8565b601f016020900490600052602060002090810190612fd79190612fdb565b5b50565b5b80821115612ff4576000816000905550600101612fdc565b5090565b6000604051905090565b600080fd5b600080fd5b60007fffffffff0000000000000000000000000000000000000000000000000000000082169050919050565b6130418161300c565b811461304c57600080fd5b50565b60008135905061305e81613038565b92915050565b60006020828403121561307a57613079613002565b5b60006130888482850161304f565b91505092915050565b60008115159050919050565b6130a681613091565b82525050565b60006020820190506130c1600083018461309d565b92915050565b600081519050919050565b600082825260208201905092915050565b60005b838110156131015780820151818401526020810190506130e6565b60008484015250505050565b6000601f19601f8301169050919050565b6000613129826130c7565b61313381856130d2565b93506131438185602086016130e3565b61314c8161310d565b840191505092915050565b60006020820190508181036000830152613171818461311e565b905092915050565b6000819050919050565b61318c81613179565b811461319757600080fd5b50565b6000813590506131a981613183565b92915050565b6000602082840312156131c5576131c4613002565b5b60006131d38482850161319a565b91505092915050565b600073ffffffffffffffffffffffffffffffffffffffff82169050919050565b6000613207826131dc565b9050919050565b613217816131fc565b82525050565b6000602082019050613232600083018461320e565b92915050565b613241816131fc565b811461324c57600080fd5b50565b60008135905061325e81613238565b92915050565b6000806040838503121561327b5761327a613002565b5b60006132898582860161324f565b925050602061329a8582860161319a565b9150509250929050565b600080fd5b6000608082840312156132bf576132be6132a4565b5b81905092915050565b600080fd5b600080fd5b600080fd5b60008083601f8401126132ed576132ec6132c8565b5b8235905067ffffffffffffffff81111561330a576133096132cd565b5b602083019150836001820283011115613326576133256132d2565b5b9250929050565b60008060006040848603121561334657613345613002565b5b600084013567ffffffffffffffff81111561336457613363613007565b5b613370868287016132a9565b935050602084013567ffffffffffffffff81111561339157613390613007565b5b61339d868287016132d7565b92509250509250925092565b6000806000606084860312156133c2576133c1613002565b5b60006133d08682870161324f565b93505060206133e18682870161324f565b92505060406133f28682870161319a565b9150509250925092565b6000806040838503121561341357613412613002565b5b60006134218582860161319a565b92505060206134328582860161319a565b9150509250929050565b61344581613179565b82525050565b6000604082019050613460600083018561320e565b61346d602083018461343c565b9392505050565b6000602082019050613489600083018461343c565b92915050565b6000602082840312156134a5576134a4613002565b5b60006134b38482850161324f565b91505092915050565b6134c581613091565b81146134d057600080fd5b50565b6000813590506134e2816134bc565b92915050565b600080604083850312156134ff576134fe613002565b5b600061350d8582860161324f565b925050602061351e858286016134d3565b9150509250929050565b600080fd5b7f4e487b7100000000000000000000000000000000000000000000000000000000600052604160045260246000fd5b6135658261310d565b810181811067ffffffffffffffff821117156135845761358361352d565b5b80604052505050565b6000613597612ff8565b90506135a3828261355c565b919050565b600067ffffffffffffffff8211156135c3576135c261352d565b5b6135cc8261310d565b9050602081019050919050565b82818337600083830152505050565b60006135fb6135f6846135a8565b61358d565b90508281526020810184848401111561361757613616613528565b5b6136228482856135d9565b509392505050565b600082601f83011261363f5761363e6132c8565b5b813561364f8482602086016135e8565b91505092915050565b6000806000806080858703121561367257613671613002565b5b60006136808782880161324f565b94505060206136918782880161324f565b93505060406136a28782880161319a565b925050606085013567ffffffffffffffff8111156136c3576136c2613007565b5b6136cf8782880161362a565b91505092959194509250565b60006bffffffffffffffffffffffff82169050919050565b6136fc816136db565b811461370757600080fd5b50565b600081359050613719816136f3565b92915050565b60008060006060848603121561373857613737613002565b5b60006137468682870161319a565b93505060206137578682870161324f565b92505060406137688682870161370a565b9150509250925092565b6000806040838503121561378957613788613002565b5b60006137978582860161324f565b92505060206137a88582860161324f565b9150509250929050565b7f4e487b7100000000000000000000000000000000000000000000000000000000600052602260045260246000fd5b600060028204905060018216806137f957607f821691505b60208210810361380c5761380b6137b2565b5b50919050565b7f4552433732313a20617070726f76616c20746f2063757272656e74206f776e6560008201527f7200000000000000000000000000000000000000000000000000000000000000602082015250565b600061386e6021836130d2565b915061387982613812565b604082019050919050565b6000602082019050818103600083015261389d81613861565b9050919050565b7f4552433732313a20617070726f76652063616c6c6572206973206e6f7420746f60008201527f6b656e206f776e6572206f7220617070726f76656420666f7220616c6c000000602082015250565b6000613900603d836130d2565b915061390b826138a4565b604082019050919050565b6000602082019050818103600083015261392f816138f3565b9050919050565b600080fd5b600080fd5b600080fd5b6000808335600160200384360303811261396257613961613936565b5b80840192508235915067ffffffffffffffff8211156139845761398361393b565b5b6020830192506001820236038313156139a05761399f613940565b5b509250929050565b600081905092915050565b60006139bf83856139a8565b93506139cc8385846135d9565b82840190509392505050565b60006139e58284866139b3565b91508190509392505050565b6000819050919050565b613a04816139f1565b82525050565b600060a082019050613a1f60008301886139fb565b613a2c60208301876139fb565b613a39604083018661343c565b613a46606083018561320e565b613a53608083018461343c565b9695505050505050565b7f4552433732313a2063616c6c6572206973206e6f7420746f6b656e206f776e6560008201527f72206f7220617070726f76656400000000000000000000000000000000000000602082015250565b6000613ab9602d836130d2565b9150613ac482613a5d565b604082019050919050565b60006020820190508181036000830152613ae881613aac565b9050919050565b7f4e487b7100000000000000000000000000000000000000000000000000000000600052601160045260246000fd5b6000613b2982613179565b9150613b3483613179565b9250828202613b4281613179565b91508282048414831517613b5957613b58613aef565b5b5092915050565b7f4e487b7100000000000000000000000000000000000000000000000000000000600052601260045260246000fd5b6000613b9a82613179565b9150613ba583613179565b925082613bb557613bb4613b60565b5b828204905092915050565b7f4e6f7420746f6b656e206f776e65720000000000000000000000000000000000600082015250565b6000613bf6600f836130d2565b9150613c0182613bc0565b602082019050919050565b60006020820190508181036000830152613c2581613be9565b9050919050565b7f4552433732313a20696e76616c696420746f6b656e2049440000000000000000600082015250565b6000613c626018836130d2565b9150613c6d82613c2c565b602082019050919050565b60006020820190508181036000830152613c9181613c55565b9050919050565b7f4552433732313a2061646472657373207a65726f206973206e6f74206120766160008201527f6c6964206f776e65720000000000000000000000000000000000000000000000602082015250565b6000613cf46029836130d2565b9150613cff82613c98565b604082019050919050565b60006020820190508181036000830152613d2381613ce7565b9050919050565b7f496e76616c696420766f75636865720000000000000000000000000000000000600082015250565b6000613d60600f836130d2565b9150613d6b82613d2a565b602082019050919050565b60006020820190508181036000830152613d8f81613d53565b9050919050565b7f496e73756666696369656e742066756e64730000000000000000000000000000600082015250565b6000613dcc6012836130d2565b9150613dd782613d96565b602082019050919050565b60006020820190508181036000830152613dfb81613dbf565b9050919050565b7f566f756368657220616c72656164792075736564000000000000000000000000600082015250565b6000613e386014836130d2565b9150613e4382613e02565b602082019050919050565b60006020820190508181036000830152613e6781613e2b565b9050919050565b6000613e7a83856130d2565b9350613e878385846135d9565b613e908361310d565b840190509392505050565b6000604082019050613eb0600083018661343c565b8181036020830152613ec3818486613e6e565b9050949350505050565b6000604082019050613ee2600083018561343c565b613eef602083018461343c565b9392505050565b600081905092915050565b6000613f0c826130c7565b613f168185613ef6565b9350613f268185602086016130e3565b80840191505092915050565b6000613f3e8285613f01565b9150613f4a8284613f01565b91508190509392505050565b7f4f776e61626c653a206e6577206f776e657220697320746865207a65726f206160008201527f6464726573730000000000000000000000000000000000000000000000000000602082015250565b6000613fb26026836130d2565b9150613fbd82613f56565b604082019050919050565b60006020820190508181036000830152613fe181613fa5565b9050919050565b7f4552433732313a207472616e736665722066726f6d20696e636f72726563742060008201527f6f776e6572000000000000000000000000000000000000000000000000000000602082015250565b60006140446025836130d2565b915061404f82613fe8565b604082019050919050565b6000602082019050818103600083015261407381614037565b9050919050565b7f4552433732313a207472616e7366657220746f20746865207a65726f2061646460008201527f7265737300000000000000000000000000000000000000000000000000000000602082015250565b60006140d66024836130d2565b91506140e18261407a565b604082019050919050565b60006020820190508181036000830152614105816140c9565b9050919050565b7f4f776e61626c653a2063616c6c6572206973206e6f7420746865206f776e6572600082015250565b60006141426020836130d2565b915061414d8261410c565b602082019050919050565b6000602082019050818103600083015261417181614135565b9050919050565b7f5265656e7472616e637947756172643a207265656e7472616e742063616c6c00600082015250565b60006141ae601f836130d2565b91506141b982614178565b602082019050919050565b600060208201905081810360008301526141dd816141a1565b9050919050565b7f4552433732313a206d696e7420746f20746865207a65726f2061646472657373600082015250565b600061421a6020836130d2565b9150614225826141e4565b602082019050919050565b600060208201905081810360008301526142498161420d565b9050919050565b7f4552433732313a20746f6b656e20616c7265616479206d696e74656400000000600082015250565b6000614286601c836130d2565b915061429182614250565b602082019050919050565b600060208201905081810360008301526142b581614279565b9050919050565b7f45524337323155524953746f726167653a2055524920736574206f66206e6f6e60008201527f6578697374656e7420746f6b656e000000000000000000000000000000000000602082015250565b6000614318602e836130d2565b9150614323826142bc565b604082019050919050565b600060208201905081810360008301526143478161430b565b9050919050565b60008190508160005260206000209050919050565b60006020601f8301049050919050565b600082821b905092915050565b6000600883026143b07fffffffffffffffffffffffffffffffffffffffffffffffffffffffffffffffff82614373565b6143ba8683614373565b95508019841693508086168417925050509392505050565b6000819050919050565b60006143f76143f26143ed84613179565b6143d2565b613179565b9050919050565b6000819050919050565b614411836143dc565b61442561441d826143fe565b848454614380565b825550505050565b600090565b61443a61442d565b614445818484614408565b505050565b5b818110156144695761445e600082614432565b60018101905061444b565b5050565b601f8211156144ae5761447f8161434e565b61448884614363565b81016020851015614497578190505b6144ab6144a385614363565b83018261444a565b50505b505050565b600082821c905092915050565b60006144d1600019846008026144b3565b1980831691505092915050565b60006144ea83836144c0565b9150826002028217905092915050565b614503826130c7565b67ffffffffffffffff81111561451c5761451b61352d565b5b61452682546137e1565b61453182828561446d565b600060209050601f8311600181146145645760008415614552578287015190505b61455c85826144de565b8655506145c4565b601f1984166145728661434e565b60005b8281101561459a57848901518255600182019150602085019450602081019050614575565b868310156145b757848901516145b3601f8916826144c0565b8355505b6001600288020188555050505b505050505050565b7f455243323938313a20726f79616c7479206665652077696c6c2065786365656460008201527f2073616c65507269636500000000000000000000000000000000000000000000602082015250565b6000614628602a836130d2565b9150614633826145cc565b604082019050919050565b600060208201905081810360008301526146578161461b565b9050919050565b7f455243323938313a20496e76616c696420706172616d65746572730000000000600082015250565b6000614694601b836130d2565b915061469f8261465e565b602082019050919050565b600060208201905081810360008301526146c381614687565b9050919050565b7f416464726573733a20696e73756666696369656e742062616c616e6365000000600082015250565b6000614700601d836130d2565b915061470b826146ca565b602082019050919050565b6000602082019050818103600083015261472f816146f3565b9050919050565b50565b60006147466000836139a8565b915061475182614736565b600082019050919050565b600061476782614739565b9150819050919050565b7f416464726573733a20756e61626c6520746f2073656e642076616c75652c207260008201527f6563697069656e74206d61792068617665207265766572746564000000000000602082015250565b60006147cd603a836130d2565b91506147d882614771565b604082019050919050565b600060208201905081810360008301526147fc816147c0565b9050919050565b7f4552433732313a20617070726f766520746f2063616c6c657200000000000000600082015250565b60006148396019836130d2565b915061484482614803565b602082019050919050565b600060208201905081810360008301526148688161482c565b9050919050565b7f4552433732313a207472616e7366657220746f206e6f6e20455243373231526560008201527f63656976657220696d706c656d656e7465720000000000000000000000000000602082015250565b60006148cb6032836130d2565b91506148d68261486f565b604082019050919050565b600060208201905081810360008301526148fa816148be565b9050919050565b7f1901000000000000000000000000000000000000000000000000000000000000600082015250565b6000614937600283613ef6565b915061494282614901565b600282019050919050565b6000819050919050565b614968614963826139f1565b61494d565b82525050565b60006149798261492a565b91506149858285614957565b6020820191506149958284614957565b6020820191508190509392505050565b7f4e487b7100000000000000000000000000000000000000000000000000000000600052602160045260246000fd5b7f45434453413a20696e76616c6964207369676e61747572650000000000000000600082015250565b6000614a0a6018836130d2565b9150614a15826149d4565b602082019050919050565b60006020820190508181036000830152614a39816149fd565b9050919050565b7f45434453413a20696e76616c6964207369676e6174757265206c656e67746800600082015250565b6000614a76601f836130d2565b9150614a8182614a40565b602082019050919050565b60006020820190508181036000830152614aa581614a69565b9050919050565b7f45434453413a20696e76616c6964207369676e6174757265202773272076616c60008201527f7565000000000000000000000000000000000000000000000000000000000000602082015250565b6000614b086022836130d2565b9150614b1382614aac565b604082019050919050565b60006020820190508181036000830152614b3781614afb565b9050919050565b600081519050919050565b600082825260208201905092915050565b6000614b6582614b3e565b614b6f8185614b49565b9350614b7f8185602086016130e3565b614b888161310d565b840191505092915050565b6000608082019050614ba8600083018761320e565b614bb5602083018661320e565b614bc2604083018561343c565b8181036060830152614bd48184614b5a565b905095945050505050565b600081519050614bee81613038565b92915050565b600060208284031215614c0a57614c09613002565b5b6000614c1884828501614bdf565b91505092915050565b600060a082019050614c3660008301886139fb565b614c4360208301876139fb565b614c5060408301866139fb565b614c5d606083018561343c565b614c6a608083018461320e565b9695505050505050565b600060ff82169050919050565b614c8a81614c74565b82525050565b6000608082019050614ca560008301876139fb565b614cb26020830186614c81565b614cbf60408301856139fb565b614ccc60608301846139fb565b9594505050505056fea26469706673582212200d01783faecd1edae76c660448ce1b2a72b2564ae1ac156cec688b12efd6b7d664736f6c63430008180033",
  "linkReferences": {},
  "deployedLinkReferences": {}
}