{
  "_format": "hh-sol-artifact-1",
  "contractName": "Marketplace",
  "sourceName": "contracts/Marketplace.sol",
  "abi": [
    {
      "inputs": [
        {
          "internalType": "address",
          "name": "_platform",
          "type": "address"
        }
      ],
      "stateMutability": "nonpayable",
      "type": "constructor"
    },
    {
      "anonymous": false,
      "inputs": [
        {
          "indexed": true,
          "internalType": "address",
          "name": "nftContract",
          "type": "address"
        },
        {
          "indexed": true,
          "internalType": "uint256",
          "name": "tokenId",
          "type": "uint256"
        },
        {
          "indexed": false,
          "internalType": "address",
          "name": "seller",
          "type": "address"
        },
        {
          "indexed": false,
          "internalType": "uint256",
          "name": "price",
          "type": "uint256"
        }
      ],
      "name": "ItemListed",
      "type": "event"
    },
    {
      "anonymous": false,
      "inputs": [
        {
          "indexed": true,
          "internalType": "address",
          "name": "nftContract",
          "type": "address"
        },
        {
          "indexed": true,
          "internalType": "uint256",
          "name": "tokenId",
          "type": "uint256"
        },
        {
          "indexed": false,
          "internalType": "address",
          "name": "buyer",
          "type": "address"
        },
        {
          "indexed": false,
          "internalType": "uint256",
          "name": "price",
          "type": "uint256"
        }
      ],
      "name": "ItemSold",
      "type": "event"
    },
    {
      "anonymous": false,
      "inputs": [
        {
          "indexed": true,
          "internalType": "address",
          "name": "nftContract",
          "type": "address"
        },
        {
          "indexed": true,
          "internalType": "uint256",
          "name": "tokenId",
          "type": "uint256"
        }
      ],
      "name": "ListingCancelled",
      "type": "event"
    },
    {
      "inputs": [
        {
          "internalType": "address",
          "name": "nftContract",
          "type": "address"
        },
        {
          "internalType": "uint256",
          "name": "tokenId",
          "type": "uint256"
        }
      ],
      "name": "buyItem",
      "outputs": [],
      "stateMutability": "payable",
      "type": "function"
    },
    {
      "inputs": [
        {
          "internalType": "address",
          "name": "nftContract",
          "type": "address"
        },
        {
          "internalType": "uint256",
          "name": "tokenId",
          "type": "uint256"
        }
      ],
      "name": "cancelListing",
      "outputs": [],
      "stateMutability": "nonpayable",
      "type": "function"
    },
    {
      "inputs": [
        {
          "internalType": "address",
          "name": "nftContract",
          "type": "address"
        },
        {
          "internalType": "uint256",
          "name": "tokenId",
          "type": "uint256"
        }
      ],
      "name": "getListing",
      "outputs": [
        {
          "components": [
            {
              "internalType": "address",
              "name": "seller",
              "type": "address"
            },
            {
              "internalType": "uint256",
              "name": "price",
              "type": "uint256"
            }
          ],
          "internalType": "struct Marketplace.Listing",
          "name": "",
          "type": "tuple"
        }
      ],
      "stateMutability": "view",
      "type": "function"
    },
    {
      "inputs": [
        {
          "internalType": "address",
          "name": "nftContract",
          "type": "address"
        },
        {
          "internalType": "uint256",
          "name": "tokenId",
          "type": "uint256"
        },
        {
          "internalType": "uint256",
          "name": "price",
          "type": "uint256"
        }
      ],
      "name": "listItem",
      "outputs": [],
      "stateMutability": "nonpayable",
      "type": "function"
    },
    {
      "inputs": [
        {
          "internalType": "address",
          "name": "",
          "type": "address"
        },
        {
          "internalType": "uint256",
          "name": "",
          "type": "uint256"
        }
      ],
      "name": "listings",
      "outputs": [
        {
          "internalType": "address",
          "name": "seller",
          "type": "address"
        },
        {
          "internalType": "uint256",
          "name": "price",
          "type": "uint256"
        }
      ],
      "stateMutability": "view",
      "type": "function"
    },
    {
      "inputs": [],
      "name": "platformAddress",
      "outputs": [
        {
          "internalType": "address",
          "name": "",
          "type": "address"
        }
      ],
      "stateMutability": "view",
      "type": "function"
    },
    {
      "inputs": [],
      "name": "platformFeeBps",
      "outputs": [
        {
          "internalType": "uint96",
          "name": "",
          "type": "uint96"
        }
      ],
      "stateMutability": "view",
      "type": "function"
    },
    {
      "inputs": [
        {
          "internalType": "address",
          "name": "newAddr",
          "type": "address"
        }
      ],
      "name": "setPlatformAddress",
      "outputs": [],
      "stateMutability": "nonpayable",
      "type": "function"
    },
    {
      "inputs": [
        {
          "internalType": "uint96",
          "name": "newBps",
          "type": "uint96"
        }
      ],
      "name": "setPlatformFee",
      "outputs": [],
      "stateMutability": "nonpayable",
      "type": "function"
    },
    {
      "inputs": [
        {
          "internalType": "address",
          "name": "nftContract",
          "type": "address"
        },
        {
          "internalType": "uint256",
          "name": "tokenId",
          "type": "uint256"
        },
        {
          "internalType": "uint256",
          "name": "newPrice",
          "type": "uint256"
        }
      ],
      "name": "updateListingPrice",
      "outputs": [],
      "stateMutability": "nonpayable",
      "type": "function"
    }
  ],
  "bytecode": "0x608060405260c8600260146101000a8154816bffffffffffffffffffffffff02191690836bffffffffffffffffffffffff1602179055503480156200004357600080fd5b5060405162001f7538038062001f75833981810160405281019062000069919062000195565b6001600081905550600073ffffffffffffffffffffffffffffffffffffffff168173ffffffffffffffffffffffffffffffffffffffff1603620000e3576040517f08c379a0000000000000000000000000000000000000000000000000000000008152600401620000da9062000228565b60405180910390fd5b80600260006101000a81548173ffffffffffffffffffffffffffffffffffffffff021916908373ffffffffffffffffffffffffffffffffffffffff160217905550506200024a565b600080fd5b600073ffffffffffffffffffffffffffffffffffffffff82169050919050565b60006200015d8262000130565b9050919050565b6200016f8162000150565b81146200017b57600080fd5b50565b6000815190506200018f8162000164565b92915050565b600060208284031215620001ae57620001ad6200012b565b5b6000620001be848285016200017e565b91505092915050565b600082825260208201905092915050565b7f496e76616c696420706c6174666f726d20616464726573730000000000000000600082015250565b600062000210601883620001c7565b91506200021d82620001d8565b602082019050919050565b60006020820190508181036000830152620002438162000201565b9050919050565b611d1b806200025a6000396000f3fe6080604052600436106100905760003560e01c8063b2ddee0611610059578063b2ddee0614610180578063cc03c342146101a9578063dbe55e56146101d2578063f7232f67146101fd578063f99e5dbb1461022657610090565b806207df301461009557806322dcd13e146100d357806388700d1c146100fe57806389bfd38f1461013b5780639f37092a14610164575b600080fd5b3480156100a157600080fd5b506100bc60048036038101906100b791906112fa565b61024f565b6040516100ca929190611358565b60405180910390f35b3480156100df57600080fd5b506100e86102a0565b6040516100f591906113a8565b60405180910390f35b34801561010a57600080fd5b50610125600480360381019061012091906112fa565b6102be565b6040516101329190611410565b60405180910390f35b34801561014757600080fd5b50610162600480360381019061015d919061142b565b610389565b005b61017e600480360381019061017991906112fa565b610705565b005b34801561018c57600080fd5b506101a760048036038101906101a291906112fa565b610b4e565b005b3480156101b557600080fd5b506101d060048036038101906101cb919061147e565b610d4a565b005b3480156101de57600080fd5b506101e7610e1e565b6040516101f491906114ab565b60405180910390f35b34801561020957600080fd5b50610224600480360381019061021f919061142b565b610e44565b005b34801561023257600080fd5b5061024d600480360381019061024891906114f2565b610fcd565b005b6001602052816000526040600020602052806000526040600020600091509150508060000160009054906101000a900473ffffffffffffffffffffffffffffffffffffffff16908060010154905082565b600260149054906101000a90046bffffffffffffffffffffffff1681565b6102c6611231565b600160008473ffffffffffffffffffffffffffffffffffffffff1673ffffffffffffffffffffffffffffffffffffffff16815260200190815260200160002060008381526020019081526020016000206040518060400160405290816000820160009054906101000a900473ffffffffffffffffffffffffffffffffffffffff1673ffffffffffffffffffffffffffffffffffffffff1673ffffffffffffffffffffffffffffffffffffffff168152602001600182015481525050905092915050565b60008390503373ffffffffffffffffffffffffffffffffffffffff168173ffffffffffffffffffffffffffffffffffffffff16636352211e856040518263ffffffff1660e01b81526004016103de919061151f565b602060405180830381865afa1580156103fb573d6000803e3d6000fd5b505050506040513d601f19601f8201168201806040525081019061041f919061154f565b73ffffffffffffffffffffffffffffffffffffffff1614610475576040517f08c379a000000000000000000000000000000000000000000000000000000000815260040161046c906115d9565b60405180910390fd5b3073ffffffffffffffffffffffffffffffffffffffff168173ffffffffffffffffffffffffffffffffffffffff1663081812fc856040518263ffffffff1660e01b81526004016104c5919061151f565b602060405180830381865afa1580156104e2573d6000803e3d6000fd5b505050506040513d601f19601f82011682018060405250810190610506919061154f565b73ffffffffffffffffffffffffffffffffffffffff1614806105a057508073ffffffffffffffffffffffffffffffffffffffff1663e985e9c533306040518363ffffffff1660e01b815260040161055e9291906115f9565b602060405180830381865afa15801561057b573d6000803e3d6000fd5b505050506040513d601f19601f8201168201806040525081019061059f919061165a565b5b6105df576040517f08c379a00000000000000000000000000000000000000000000000000000000081526004016105d6906116d3565b60405180910390fd5b60405180604001604052803373ffffffffffffffffffffffffffffffffffffffff16815260200183815250600160008673ffffffffffffffffffffffffffffffffffffffff1673ffffffffffffffffffffffffffffffffffffffff168152602001908152602001600020600085815260200190815260200160002060008201518160000160006101000a81548173ffffffffffffffffffffffffffffffffffffffff021916908373ffffffffffffffffffffffffffffffffffffffff16021790555060208201518160010155905050828473ffffffffffffffffffffffffffffffffffffffff167fb29a3c5d9c9eb8230bd277c54293a0a15e98cd5592a3e0d470fe9ce59fed54f133856040516106f7929190611358565b60405180910390a350505050565b61070d6110e4565b6000600160008473ffffffffffffffffffffffffffffffffffffffff1673ffffffffffffffffffffffffffffffffffffffff16815260200190815260200160002060008381526020019081526020016000206040518060400160405290816000820160009054906101000a900473ffffffffffffffffffffffffffffffffffffffff1673ffffffffffffffffffffffffffffffffffffffff1673ffffffffffffffffffffffffffffffffffffffff16815260200160018201548152505090506000816020015111610813576040517f08c379a000000000000000000000000000000000000000000000000000000000815260040161080a9061173f565b60405180910390fd5b806020015134101561085a576040517f08c379a0000000000000000000000000000000000000000000000000000000008152600401610851906117ab565b60405180910390fd5b60008390506000808273ffffffffffffffffffffffffffffffffffffffff16632a55205a86346040518363ffffffff1660e01b815260040161089d9291906117cb565b6040805180830381865afa1580156108b9573d6000803e3d6000fd5b505050506040513d601f19601f820116820180604052508101906108dd9190611809565b91509150600081111561091457610913818373ffffffffffffffffffffffffffffffffffffffff1661113390919063ffffffff16565b5b6000612710600260149054906101000a90046bffffffffffffffffffffffff166bffffffffffffffffffffffff163461094d9190611878565b61095791906118e9565b905060008111156109ae576109ad81600260009054906101000a900473ffffffffffffffffffffffffffffffffffffffff1673ffffffffffffffffffffffffffffffffffffffff1661113390919063ffffffff16565b5b60008183346109bd919061191a565b6109c7919061191a565b90506109f681876000015173ffffffffffffffffffffffffffffffffffffffff1661113390919063ffffffff16565b8473ffffffffffffffffffffffffffffffffffffffff166342842e0e8760000151338a6040518463ffffffff1660e01b8152600401610a379392919061194e565b600060405180830381600087803b158015610a5157600080fd5b505af1158015610a65573d6000803e3d6000fd5b50505050600160008973ffffffffffffffffffffffffffffffffffffffff1673ffffffffffffffffffffffffffffffffffffffff1681526020019081526020016000206000888152602001908152602001600020600080820160006101000a81549073ffffffffffffffffffffffffffffffffffffffff021916905560018201600090555050868873ffffffffffffffffffffffffffffffffffffffff167f8ca4493c491677f20135642d78d6dc72644d000a3a6028fcb168b2d09339a4c43334604051610b34929190611358565b60405180910390a3505050505050610b4a611227565b5050565b6000600160008473ffffffffffffffffffffffffffffffffffffffff1673ffffffffffffffffffffffffffffffffffffffff16815260200190815260200160002060008381526020019081526020016000206040518060400160405290816000820160009054906101000a900473ffffffffffffffffffffffffffffffffffffffff1673ffffffffffffffffffffffffffffffffffffffff1673ffffffffffffffffffffffffffffffffffffffff16815260200160018201548152505090503373ffffffffffffffffffffffffffffffffffffffff16816000015173ffffffffffffffffffffffffffffffffffffffff1614610c7f576040517f08c379a0000000000000000000000000000000000000000000000000000000008152600401610c76906119d1565b60405180910390fd5b600160008473ffffffffffffffffffffffffffffffffffffffff1673ffffffffffffffffffffffffffffffffffffffff1681526020019081526020016000206000838152602001908152602001600020600080820160006101000a81549073ffffffffffffffffffffffffffffffffffffffff021916905560018201600090555050818373ffffffffffffffffffffffffffffffffffffffff167f93ec4766fcd2d9dfdceab8f2e13ba0d9d826645cf03167fdb92b3b7359b5248c60405160405180910390a3505050565b600260009054906101000a900473ffffffffffffffffffffffffffffffffffffffff1673ffffffffffffffffffffffffffffffffffffffff163373ffffffffffffffffffffffffffffffffffffffff1614610dda576040517f08c379a0000000000000000000000000000000000000000000000000000000008152600401610dd190611a3d565b60405180910390fd5b80600260006101000a81548173ffffffffffffffffffffffffffffffffffffffff021916908373ffffffffffffffffffffffffffffffffffffffff16021790555050565b600260009054906101000a900473ffffffffffffffffffffffffffffffffffffffff1681565b6000600160008573ffffffffffffffffffffffffffffffffffffffff1673ffffffffffffffffffffffffffffffffffffffff168152602001908152602001600020600084815260200190815260200160002090503373ffffffffffffffffffffffffffffffffffffffff168160000160009054906101000a900473ffffffffffffffffffffffffffffffffffffffff1673ffffffffffffffffffffffffffffffffffffffff1614610f2a576040517f08c379a0000000000000000000000000000000000000000000000000000000008152600401610f21906119d1565b60405180910390fd5b60008211610f6d576040517f08c379a0000000000000000000000000000000000000000000000000000000008152600401610f6490611aa9565b60405180910390fd5b818160010181905550828473ffffffffffffffffffffffffffffffffffffffff167fb29a3c5d9c9eb8230bd277c54293a0a15e98cd5592a3e0d470fe9ce59fed54f13385604051610fbf929190611358565b60405180910390a350505050565b600260009054906101000a900473ffffffffffffffffffffffffffffffffffffffff1673ffffffffffffffffffffffffffffffffffffffff163373ffffffffffffffffffffffffffffffffffffffff161461105d576040517f08c379a000000000000000000000000000000000000000000000000000000000815260040161105490611a3d565b60405180910390fd5b6103e8816bffffffffffffffffffffffff1611156110b0576040517f08c379a00000000000000000000000000000000000000000000000000000000081526004016110a790611b15565b60405180910390fd5b80600260146101000a8154816bffffffffffffffffffffffff02191690836bffffffffffffffffffffffff16021790555050565b600260005403611129576040517f08c379a000000000000000000000000000000000000000000000000000000000815260040161112090611b81565b60405180910390fd5b6002600081905550565b80471015611176576040517f08c379a000000000000000000000000000000000000000000000000000000000815260040161116d90611bed565b60405180910390fd5b60008273ffffffffffffffffffffffffffffffffffffffff168260405161119c90611c3e565b60006040518083038185875af1925050503d80600081146111d9576040519150601f19603f3d011682016040523d82523d6000602084013e6111de565b606091505b5050905080611222576040517f08c379a000000000000000000000000000000000000000000000000000000000815260040161121990611cc5565b60405180910390fd5b505050565b6001600081905550565b6040518060400160405280600073ffffffffffffffffffffffffffffffffffffffff168152602001600081525090565b600080fd5b600073ffffffffffffffffffffffffffffffffffffffff82169050919050565b600061129182611266565b9050919050565b6112a181611286565b81146112ac57600080fd5b50565b6000813590506112be81611298565b92915050565b6000819050919050565b6112d7816112c4565b81146112e257600080fd5b50565b6000813590506112f4816112ce565b92915050565b6000806040838503121561131157611310611261565b5b600061131f858286016112af565b9250506020611330858286016112e5565b9150509250929050565b61134381611286565b82525050565b611352816112c4565b82525050565b600060408201905061136d600083018561133a565b61137a6020830184611349565b9392505050565b60006bffffffffffffffffffffffff82169050919050565b6113a281611381565b82525050565b60006020820190506113bd6000830184611399565b92915050565b6113cc81611286565b82525050565b6113db816112c4565b82525050565b6040820160008201516113f760008501826113c3565b50602082015161140a60208501826113d2565b50505050565b600060408201905061142560008301846113e1565b92915050565b60008060006060848603121561144457611443611261565b5b6000611452868287016112af565b9350506020611463868287016112e5565b9250506040611474868287016112e5565b9150509250925092565b60006020828403121561149457611493611261565b5b60006114a2848285016112af565b91505092915050565b60006020820190506114c0600083018461133a565b92915050565b6114cf81611381565b81146114da57600080fd5b50565b6000813590506114ec816114c6565b92915050565b60006020828403121561150857611507611261565b5b6000611516848285016114dd565b91505092915050565b60006020820190506115346000830184611349565b92915050565b60008151905061154981611298565b92915050565b60006020828403121561156557611564611261565b5b60006115738482850161153a565b91505092915050565b600082825260208201905092915050565b7f4e6f74206f776e65720000000000000000000000000000000000000000000000600082015250565b60006115c360098361157c565b91506115ce8261158d565b602082019050919050565b600060208201905081810360008301526115f2816115b6565b9050919050565b600060408201905061160e600083018561133a565b61161b602083018461133a565b9392505050565b60008115159050919050565b61163781611622565b811461164257600080fd5b50565b6000815190506116548161162e565b92915050565b6000602082840312156116705761166f611261565b5b600061167e84828501611645565b91505092915050565b7f4d61726b6574706c616365206e6f7420617070726f7665640000000000000000600082015250565b60006116bd60188361157c565b91506116c882611687565b602082019050919050565b600060208201905081810360008301526116ec816116b0565b9050919050565b7f4e6f74206c697374656400000000000000000000000000000000000000000000600082015250565b6000611729600a8361157c565b9150611734826116f3565b602082019050919050565b600060208201905081810360008301526117588161171c565b9050919050565b7f496e73756666696369656e74207061796d656e74000000000000000000000000600082015250565b600061179560148361157c565b91506117a08261175f565b602082019050919050565b600060208201905081810360008301526117c481611788565b9050919050565b60006040820190506117e06000830185611349565b6117ed6020830184611349565b9392505050565b600081519050611803816112ce565b92915050565b600080604083850312156118205761181f611261565b5b600061182e8582860161153a565b925050602061183f858286016117f4565b9150509250929050565b7f4e487b7100000000000000000000000000000000000000000000000000000000600052601160045260246000fd5b6000611883826112c4565b915061188e836112c4565b925082820261189c816112c4565b915082820484148315176118b3576118b2611849565b5b5092915050565b7f4e487b7100000000000000000000000000000000000000000000000000000000600052601260045260246000fd5b60006118f4826112c4565b91506118ff836112c4565b92508261190f5761190e6118ba565b5b828204905092915050565b6000611925826112c4565b9150611930836112c4565b925082820390508181111561194857611947611849565b5b92915050565b6000606082019050611963600083018661133a565b611970602083018561133a565b61197d6040830184611349565b949350505050565b7f4e6f742073656c6c657200000000000000000000000000000000000000000000600082015250565b60006119bb600a8361157c565b91506119c682611985565b602082019050919050565b600060208201905081810360008301526119ea816119ae565b9050919050565b7f4f6e6c7920706c6174666f726d00000000000000000000000000000000000000600082015250565b6000611a27600d8361157c565b9150611a32826119f1565b602082019050919050565b60006020820190508181036000830152611a5681611a1a565b9050919050565b7f5072696365206d757374206265203e2030000000000000000000000000000000600082015250565b6000611a9360118361157c565b9150611a9e82611a5d565b602082019050919050565b60006020820190508181036000830152611ac281611a86565b9050919050565b7f46656520746f6f20686967680000000000000000000000000000000000000000600082015250565b6000611aff600c8361157c565b9150611b0a82611ac9565b602082019050919050565b60006020820190508181036000830152611b2e81611af2565b9050919050565b7f5265656e7472616e637947756172643a207265656e7472616e742063616c6c00600082015250565b6000611b6b601f8361157c565b9150611b7682611b35565b602082019050919050565b60006020820190508181036000830152611b9a81611b5e565b9050919050565b7f416464726573733a20696e73756666696369656e742062616c616e6365000000600082015250565b6000611bd7601d8361157c565b9150611be282611ba1565b602082019050919050565b60006020820190508181036000830152611c0681611bca565b9050919050565b600081905092915050565b50565b6000611c28600083611c0d565b9150611c3382611c18565b600082019050919050565b6000611c4982611c1b565b9150819050919050565b7f416464726573733a20756e61626c6520746f2073656e642076616c75652c207260008201527f6563697069656e74206d61792068617665207265766572746564000000000000602082015250565b6000611caf603a8361157c565b9150611cba82611c53565b604082019050919050565b60006020820190508181036000830152611cde81611ca2565b905091905056fea2646970667358221220755c26cec04409e429bfe4529d3341985463766aeec61beefd209e735d7c566a64736f6c63430008180033",
  "linkReferences": {},
  "deployedLinkReferences": {}
}