{
  "_format": "hh-sol-artifact-1",
  "contractName": "Marketplace",
  "sourceName": "contracts/Marketplace.sol",
  "abi": [
    {
      "inputs": [
        {
          "internalType": "address",
          "name": "_platform",
          "type": "address"
        }
      ],
      "stateMutability": "nonpayable",
      "type": "constructor"
    },
    {
      "anonymous": false,
      "inputs": [
        {
          "indexed": true,
          "internalType": "address",
          "name": "nftContract",
          "type": "address"
        },
        {
          "indexed": true,
          "internalType": "uint256",
          "name": "tokenId",
          "type": "uint256"
        },
        {
          "indexed": false,
          "internalType": "address",
          "name": "seller",
          "type": "address"
        },
        {
          "indexed": false,
          "internalType": "uint256",
          "name": "price",
          "type": "uint256"
        }
      ],
      "name": "ItemListed",
      "type": "event"
    },
    {
      "anonymous": false,
      "inputs": [
        {
          "indexed": true,
          "internalType": "address",
          "name": "nftContract",
          "type": "address"
        },
        {
          "indexed": true,
          "internalType": "uint256",
          "name": "tokenId",
          "type": "uint256"
        },
        {
          "indexed": false,
          "internalType": "address",
          "name": "buyer",
          "type": "address"
        },
        {
          "indexed": false,
          "internalType": "uint256",
          "name": "price",
          "type": "uint256"
        }
      ],
      "name": "ItemSold",
      "type": "event"
    },
    {
      "anonymous": false,
      "inputs": [
        {
          "indexed": true,
          "internalType": "address",
          "name": "nftContract",
          "type": "address"
        },
        {
          "indexed": true,
          "internalType": "uint256",
          "name": "tokenId",
          "type": "uint256"
        }
      ],
      "name": "ListingCancelled",
      "type": "event"
    },
    {
      "inputs": [
        {
          "internalType": "address",
          "name": "nftContract",
          "type": "address"
        },
        {
          "internalType": "uint256",
          "name": "tokenId",
          "type": "uint256"
        }
      ],
      "name": "buyItem",
      "outputs": [],
      "stateMutability": "payable",
      "type": "function"
    },
    {
      "inputs": [
        {
          "internalType": "address",
          "name": "nftContract",
          "type": "address"
        },
        {
          "internalType": "uint256",
          "name": "tokenId",
          "type": "uint256"
        }
      ],
      "name": "cancelListing",
      "outputs": [],
      "stateMutability": "nonpayable",
      "type": "function"
    },
    {
      "inputs": [
        {
          "internalType": "address",
          "name": "nftContract",
          "type": "address"
        },
        {
          "internalType": "uint256",
          "name": "tokenId",
          "type": "uint256"
        }
      ],
      "name": "getListing",
      "outputs": [
        {
          "components": [
            {
              "internalType": "address",
              "name": "seller",
              "type": "address"
            },
            {
              "internalType": "uint256",
              "name": "price",
              "type": "uint256"
            }
          ],
          "internalType": "struct Marketplace.Listing",
          "name": "",
          "type": "tuple"
        }
      ],
      "stateMutability": "view",
      "type": "function"
    },
    {
      "inputs": [
        {
          "internalType": "address",
          "name": "nftContract",
          "type": "address"
        },
        {
          "internalType": "uint256",
          "name": "tokenId",
          "type": "uint256"
        },
        {
          "internalType": "uint256",
          "name": "price",
          "type": "uint256"
        }
      ],
      "name": "listItem",
      "outputs": [],
      "stateMutability": "nonpayable",
      "type": "function"
    },
    {
      "inputs": [
        {
          "internalType": "address",
          "name": "",
          "type": "address"
        },
        {
          "internalType": "uint256",
          "name": "",
          "type": "uint256"
        }
      ],
      "name": "listings",
      "outputs": [
        {
          "internalType": "address",
          "name": "seller",
          "type": "address"
        },
        {
          "internalType": "uint256",
          "name": "price",
          "type": "uint256"
        }
      ],
      "stateMutability": "view",
      "type": "function"
    },
    {
      "inputs": [],
      "name": "platformAddress",
      "outputs": [
        {
          "internalType": "address",
          "name": "",
          "type": "address"
        }
      ],
      "stateMutability": "view",
      "type": "function"
    },
    {
      "inputs": [],
      "name": "platformFeeBps",
      "outputs": [
        {
          "internalType": "uint96",
          "name": "",
          "type": "uint96"
        }
      ],
      "stateMutability": "view",
      "type": "function"
    },
    {
      "inputs": [
        {
          "internalType": "address",
          "name": "newAddr",
          "type": "address"
        }
      ],
      "name": "setPlatformAddress",
      "outputs": [],
      "stateMutability": "nonpayable",
      "type": "function"
    },
    {
      "inputs": [
        {
          "internalType": "uint96",
          "name": "newBps",
          "type": "uint96"
        }
      ],
      "name": "setPlatformFee",
      "outputs": [],
      "stateMutability": "nonpayable",
      "type": "function"
    }
  ],
  "bytecode": "0x608060405260c8600260146101000a8154816bffffffffffffffffffffffff02191690836bffffffffffffffffffffffff1602179055503480156200004357600080fd5b5060405162001d4c38038062001d4c833981810160405281019062000069919062000195565b6001600081905550600073ffffffffffffffffffffffffffffffffffffffff168173ffffffffffffffffffffffffffffffffffffffff1603620000e3576040517f08c379a0000000000000000000000000000000000000000000000000000000008152600401620000da9062000228565b60405180910390fd5b80600260006101000a81548173ffffffffffffffffffffffffffffffffffffffff021916908373ffffffffffffffffffffffffffffffffffffffff160217905550506200024a565b600080fd5b600073ffffffffffffffffffffffffffffffffffffffff82169050919050565b60006200015d8262000130565b9050919050565b6200016f8162000150565b81146200017b57600080fd5b50565b6000815190506200018f8162000164565b92915050565b600060208284031215620001ae57620001ad6200012b565b5b6000620001be848285016200017e565b91505092915050565b600082825260208201905092915050565b7f496e76616c696420706c6174666f726d20616464726573730000000000000000600082015250565b600062000210601883620001c7565b91506200021d82620001d8565b602082019050919050565b60006020820190508181036000830152620002438162000201565b9050919050565b611af2806200025a6000396000f3fe6080604052600436106100855760003560e01c80639f37092a116100595780639f37092a14610159578063b2ddee0614610175578063cc03c3421461019e578063dbe55e56146101c7578063f99e5dbb146101f257610085565b806207df301461008a57806322dcd13e146100c857806388700d1c146100f357806389bfd38f14610130575b600080fd5b34801561009657600080fd5b506100b160048036038101906100ac919061113d565b61021b565b6040516100bf92919061119b565b60405180910390f35b3480156100d457600080fd5b506100dd61026c565b6040516100ea91906111eb565b60405180910390f35b3480156100ff57600080fd5b5061011a6004803603810190610115919061113d565b61028a565b6040516101279190611253565b60405180910390f35b34801561013c57600080fd5b506101576004803603810190610152919061126e565b610355565b005b610173600480360381019061016e919061113d565b6106d1565b005b34801561018157600080fd5b5061019c6004803603810190610197919061113d565b610b1a565b005b3480156101aa57600080fd5b506101c560048036038101906101c091906112c1565b610d16565b005b3480156101d357600080fd5b506101dc610dea565b6040516101e991906112ee565b60405180910390f35b3480156101fe57600080fd5b5061021960048036038101906102149190611335565b610e10565b005b6001602052816000526040600020602052806000526040600020600091509150508060000160009054906101000a900473ffffffffffffffffffffffffffffffffffffffff16908060010154905082565b600260149054906101000a90046bffffffffffffffffffffffff1681565b610292611074565b600160008473ffffffffffffffffffffffffffffffffffffffff1673ffffffffffffffffffffffffffffffffffffffff16815260200190815260200160002060008381526020019081526020016000206040518060400160405290816000820160009054906101000a900473ffffffffffffffffffffffffffffffffffffffff1673ffffffffffffffffffffffffffffffffffffffff1673ffffffffffffffffffffffffffffffffffffffff168152602001600182015481525050905092915050565b60008390503373ffffffffffffffffffffffffffffffffffffffff168173ffffffffffffffffffffffffffffffffffffffff16636352211e856040518263ffffffff1660e01b81526004016103aa9190611362565b602060405180830381865afa1580156103c7573d6000803e3d6000fd5b505050506040513d601f19601f820116820180604052508101906103eb9190611392565b73ffffffffffffffffffffffffffffffffffffffff1614610441576040517f08c379a00000000000000000000000000000000000000000000000000000000081526004016104389061141c565b60405180910390fd5b3073ffffffffffffffffffffffffffffffffffffffff168173ffffffffffffffffffffffffffffffffffffffff1663081812fc856040518263ffffffff1660e01b81526004016104919190611362565b602060405180830381865afa1580156104ae573d6000803e3d6000fd5b505050506040513d601f19601f820116820180604052508101906104d29190611392565b73ffffffffffffffffffffffffffffffffffffffff16148061056c57508073ffffffffffffffffffffffffffffffffffffffff1663e985e9c533306040518363ffffffff1660e01b815260040161052a92919061143c565b602060405180830381865afa158015610547573d6000803e3d6000fd5b505050506040513d601f19601f8201168201806040525081019061056b919061149d565b5b6105ab576040517f08c379a00000000000000000000000000000000000000000000000000000000081526004016105a290611516565b60405180910390fd5b60405180604001604052803373ffffffffffffffffffffffffffffffffffffffff16815260200183815250600160008673ffffffffffffffffffffffffffffffffffffffff1673ffffffffffffffffffffffffffffffffffffffff168152602001908152602001600020600085815260200190815260200160002060008201518160000160006101000a81548173ffffffffffffffffffffffffffffffffffffffff021916908373ffffffffffffffffffffffffffffffffffffffff16021790555060208201518160010155905050828473ffffffffffffffffffffffffffffffffffffffff167fb29a3c5d9c9eb8230bd277c54293a0a15e98cd5592a3e0d470fe9ce59fed54f133856040516106c392919061119b565b60405180910390a350505050565b6106d9610f27565b6000600160008473ffffffffffffffffffffffffffffffffffffffff1673ffffffffffffffffffffffffffffffffffffffff16815260200190815260200160002060008381526020019081526020016000206040518060400160405290816000820160009054906101000a900473ffffffffffffffffffffffffffffffffffffffff1673ffffffffffffffffffffffffffffffffffffffff1673ffffffffffffffffffffffffffffffffffffffff168152602001600182015481525050905060008160200151116107df576040517f08c379a00000000000000000000000000000000000000000000000000000000081526004016107d690611582565b60405180910390fd5b8060200151341015610826576040517f08c379a000000000000000000000000000000000000000000000000000000000815260040161081d906115ee565b60405180910390fd5b60008390506000808273ffffffffffffffffffffffffffffffffffffffff16632a55205a86346040518363ffffffff1660e01b815260040161086992919061160e565b6040805180830381865afa158015610885573d6000803e3d6000fd5b505050506040513d601f19601f820116820180604052508101906108a9919061164c565b9150915060008111156108e0576108df818373ffffffffffffffffffffffffffffffffffffffff16610f7690919063ffffffff16565b5b6000612710600260149054906101000a90046bffffffffffffffffffffffff166bffffffffffffffffffffffff163461091991906116bb565b610923919061172c565b9050600081111561097a5761097981600260009054906101000a900473ffffffffffffffffffffffffffffffffffffffff1673ffffffffffffffffffffffffffffffffffffffff16610f7690919063ffffffff16565b5b6000818334610989919061175d565b610993919061175d565b90506109c281876000015173ffffffffffffffffffffffffffffffffffffffff16610f7690919063ffffffff16565b8473ffffffffffffffffffffffffffffffffffffffff166342842e0e8760000151338a6040518463ffffffff1660e01b8152600401610a0393929190611791565b600060405180830381600087803b158015610a1d57600080fd5b505af1158015610a31573d6000803e3d6000fd5b50505050600160008973ffffffffffffffffffffffffffffffffffffffff1673ffffffffffffffffffffffffffffffffffffffff1681526020019081526020016000206000888152602001908152602001600020600080820160006101000a81549073ffffffffffffffffffffffffffffffffffffffff021916905560018201600090555050868873ffffffffffffffffffffffffffffffffffffffff167f8ca4493c491677f20135642d78d6dc72644d000a3a6028fcb168b2d09339a4c43334604051610b0092919061119b565b60405180910390a3505050505050610b1661106a565b5050565b6000600160008473ffffffffffffffffffffffffffffffffffffffff1673ffffffffffffffffffffffffffffffffffffffff16815260200190815260200160002060008381526020019081526020016000206040518060400160405290816000820160009054906101000a900473ffffffffffffffffffffffffffffffffffffffff1673ffffffffffffffffffffffffffffffffffffffff1673ffffffffffffffffffffffffffffffffffffffff16815260200160018201548152505090503373ffffffffffffffffffffffffffffffffffffffff16816000015173ffffffffffffffffffffffffffffffffffffffff1614610c4b576040517f08c379a0000000000000000000000000000000000000000000000000000000008152600401610c4290611814565b60405180910390fd5b600160008473ffffffffffffffffffffffffffffffffffffffff1673ffffffffffffffffffffffffffffffffffffffff1681526020019081526020016000206000838152602001908152602001600020600080820160006101000a81549073ffffffffffffffffffffffffffffffffffffffff021916905560018201600090555050818373ffffffffffffffffffffffffffffffffffffffff167f93ec4766fcd2d9dfdceab8f2e13ba0d9d826645cf03167fdb92b3b7359b5248c60405160405180910390a3505050565b600260009054906101000a900473ffffffffffffffffffffffffffffffffffffffff1673ffffffffffffffffffffffffffffffffffffffff163373ffffffffffffffffffffffffffffffffffffffff1614610da6576040517f08c379a0000000000000000000000000000000000000000000000000000000008152600401610d9d90611880565b60405180910390fd5b80600260006101000a81548173ffffffffffffffffffffffffffffffffffffffff021916908373ffffffffffffffffffffffffffffffffffffffff16021790555050565b600260009054906101000a900473ffffffffffffffffffffffffffffffffffffffff1681565b600260009054906101000a900473ffffffffffffffffffffffffffffffffffffffff1673ffffffffffffffffffffffffffffffffffffffff163373ffffffffffffffffffffffffffffffffffffffff1614610ea0576040517f08c379a0000000000000000000000000000000000000000000000000000000008152600401610e9790611880565b60405180910390fd5b6103e8816bffffffffffffffffffffffff161115610ef3576040517f08c379a0000000000000000000000000000000000000000000000000000000008152600401610eea906118ec565b60405180910390fd5b80600260146101000a8154816bffffffffffffffffffffffff02191690836bffffffffffffffffffffffff16021790555050565b600260005403610f6c576040517f08c379a0000000000000000000000000000000000000000000000000000000008152600401610f6390611958565b60405180910390fd5b6002600081905550565b80471015610fb9576040517f08c379a0000000000000000000000000000000000000000000000000000000008152600401610fb0906119c4565b60405180910390fd5b60008273ffffffffffffffffffffffffffffffffffffffff1682604051610fdf90611a15565b60006040518083038185875af1925050503d806000811461101c576040519150601f19603f3d011682016040523d82523d6000602084013e611021565b606091505b5050905080611065576040517f08c379a000000000000000000000000000000000000000000000000000000000815260040161105c90611a9c565b60405180910390fd5b505050565b6001600081905550565b6040518060400160405280600073ffffffffffffffffffffffffffffffffffffffff168152602001600081525090565b600080fd5b600073ffffffffffffffffffffffffffffffffffffffff82169050919050565b60006110d4826110a9565b9050919050565b6110e4816110c9565b81146110ef57600080fd5b50565b600081359050611101816110db565b92915050565b6000819050919050565b61111a81611107565b811461112557600080fd5b50565b60008135905061113781611111565b92915050565b60008060408385031215611154576111536110a4565b5b6000611162858286016110f2565b925050602061117385828601611128565b9150509250929050565b611186816110c9565b82525050565b61119581611107565b82525050565b60006040820190506111b0600083018561117d565b6111bd602083018461118c565b9392505050565b60006bffffffffffffffffffffffff82169050919050565b6111e5816111c4565b82525050565b600060208201905061120060008301846111dc565b92915050565b61120f816110c9565b82525050565b61121e81611107565b82525050565b60408201600082015161123a6000850182611206565b50602082015161124d6020850182611215565b50505050565b60006040820190506112686000830184611224565b92915050565b600080600060608486031215611287576112866110a4565b5b6000611295868287016110f2565b93505060206112a686828701611128565b92505060406112b786828701611128565b9150509250925092565b6000602082840312156112d7576112d66110a4565b5b60006112e5848285016110f2565b91505092915050565b6000602082019050611303600083018461117d565b92915050565b611312816111c4565b811461131d57600080fd5b50565b60008135905061132f81611309565b92915050565b60006020828403121561134b5761134a6110a4565b5b600061135984828501611320565b91505092915050565b6000602082019050611377600083018461118c565b92915050565b60008151905061138c816110db565b92915050565b6000602082840312156113a8576113a76110a4565b5b60006113b68482850161137d565b91505092915050565b600082825260208201905092915050565b7f4e6f74206f776e65720000000000000000000000000000000000000000000000600082015250565b60006114066009836113bf565b9150611411826113d0565b602082019050919050565b60006020820190508181036000830152611435816113f9565b9050919050565b6000604082019050611451600083018561117d565b61145e602083018461117d565b9392505050565b60008115159050919050565b61147a81611465565b811461148557600080fd5b50565b60008151905061149781611471565b92915050565b6000602082840312156114b3576114b26110a4565b5b60006114c184828501611488565b91505092915050565b7f4d61726b6574706c616365206e6f7420617070726f7665640000000000000000600082015250565b60006115006018836113bf565b915061150b826114ca565b602082019050919050565b6000602082019050818103600083015261152f816114f3565b9050919050565b7f4e6f74206c697374656400000000000000000000000000000000000000000000600082015250565b600061156c600a836113bf565b915061157782611536565b602082019050919050565b6000602082019050818103600083015261159b8161155f565b9050919050565b7f496e73756666696369656e74207061796d656e74000000000000000000000000600082015250565b60006115d86014836113bf565b91506115e3826115a2565b602082019050919050565b60006020820190508181036000830152611607816115cb565b9050919050565b6000604082019050611623600083018561118c565b611630602083018461118c565b9392505050565b60008151905061164681611111565b92915050565b60008060408385031215611663576116626110a4565b5b60006116718582860161137d565b925050602061168285828601611637565b9150509250929050565b7f4e487b7100000000000000000000000000000000000000000000000000000000600052601160045260246000fd5b60006116c682611107565b91506116d183611107565b92508282026116df81611107565b915082820484148315176116f6576116f561168c565b5b5092915050565b7f4e487b7100000000000000000000000000000000000000000000000000000000600052601260045260246000fd5b600061173782611107565b915061174283611107565b925082611752576117516116fd565b5b828204905092915050565b600061176882611107565b915061177383611107565b925082820390508181111561178b5761178a61168c565b5b92915050565b60006060820190506117a6600083018661117d565b6117b3602083018561117d565b6117c0604083018461118c565b949350505050565b7f4e6f742073656c6c657200000000000000000000000000000000000000000000600082015250565b60006117fe600a836113bf565b9150611809826117c8565b602082019050919050565b6000602082019050818103600083015261182d816117f1565b9050919050565b7f4f6e6c7920706c6174666f726d00000000000000000000000000000000000000600082015250565b600061186a600d836113bf565b915061187582611834565b602082019050919050565b600060208201905081810360008301526118998161185d565b9050919050565b7f46656520746f6f20686967680000000000000000000000000000000000000000600082015250565b60006118d6600c836113bf565b91506118e1826118a0565b602082019050919050565b60006020820190508181036000830152611905816118c9565b9050919050565b7f5265656e7472616e637947756172643a207265656e7472616e742063616c6c00600082015250565b6000611942601f836113bf565b915061194d8261190c565b602082019050919050565b6000602082019050818103600083015261197181611935565b9050919050565b7f416464726573733a20696e73756666696369656e742062616c616e6365000000600082015250565b60006119ae601d836113bf565b91506119b982611978565b602082019050919050565b600060208201905081810360008301526119dd816119a1565b9050919050565b600081905092915050565b50565b60006119ff6000836119e4565b9150611a0a826119ef565b600082019050919050565b6000611a20826119f2565b9150819050919050565b7f416464726573733a20756e61626c6520746f2073656e642076616c75652c207260008201527f6563697069656e74206d61792068617665207265766572746564000000000000602082015250565b6000611a86603a836113bf565b9150611a9182611a2a565b604082019050919050565b60006020820190508181036000830152611ab581611a79565b905091905056fea26469706673582212200a9046b5074f131302e097efe0387de7e445be71a39bd56a717a7c496bc3772b64736f6c63430008180033",
  "linkReferences": {},
  "deployedLinkReferences": {}
}